:020000040000FA
:020E3200000CB2
:020E7A00000C6A
:020F0800000CDB
:020F2A00000CB9
:0411400015EF09F0AE
:08114800F2A406D0FA519EA8A2
:0E115000FED7AD6EF29AF2942EEF00F0100072
:10120000F76A100FF66E120EF7220900F550120061
:101210005465737470726F6772616D6D204765738A
:101220007461727465740A0D0000F86AD09EEA6AEF
:10123000E96AB896190EAF6EA60EAC6E900EAB6E44
:10124000C150C00B0F09C16E070EB46E800ED56E73
:10125000FB6BFB51D5DFFB2B006E00509EA8FED729
:10126000AD6E180EFB5DF5E1D76A510ED66E5DDEF0
:1012700001C0FAF0FA51800802E101EF08F0FAC06B
:0A128000CEF042DEF28AF3D703003D
:020000040030CA
:0E00000020051E1E008381000FC00FE00F4080
:00000001FF
;PIC18F2550
