:0400000051EF00F0CC
:10000800FACF80F0FBCF81F0E9CF82F0B5ED0FF0A9
:10001800D8CF01F0E8CF02F0E0CF03F0FACF04F038
:10002800FBCF05F0E9CF06F0EACF07F0E1CF08F003
:10003800E2CF09F0D9CF0AF0DACF0BF0F3CF0CF00A
:10004800F4CF0DF0F6CF0EF0F7CF0FF0F8CF10F099
:10005800F5CF11F011C0F5FF10C0F8FF0FC0F7FF82
:100068000EC0F6FF0DC0F4FF0CC0F3FF0BC0DAFFA3
:100078000AC0D9FF09C0E2FF08C0E1FF07C0EAFFD4
:1000880006C0E9FF05C0FBFF04C0FAFF03C0E0FF9C
:0E00980002C0E8FF01C0D8FF100020EF11F0F9
:1008000000E1085108090889084803530069006D90
:100810000070006C00650020004800490044002082
:100820000044006500760069006300650020004414
:100830000065006D006F00200028002D003E0020A4
:100840000031003800460034003500350030002902
:10085000003803410020004D006900630072006F02
:1008600000630068006900700020005400650063A8
:100870000068006E006F006C006F00670079002058
:100880000049006E0063002E0009022900010100EA
:10089000C032090400000203000000092111010018
:1008A00001221D00070581034000010705010340E7
:1008B00000010600FF0901A10119012940150126C7
:1008C000FF00750895408100190129409100C01270
:1008D00001000200000008D8043F000200010200ED
:1008E00001040309040004012205D8A412D0040164
:1008F00020511F0B0009D8A40CD000017D8F030EDE
:1009000004012119D8A402D0010E01D0000E3B6EC3
:1009100000D004012251D8A431D1040120511F0B71
:10092000020AD8A42BD1040124510F0B0009D8B41A
:1009300025D1040124510F0B266E020E26601ED114
:10094000200E00017819D8A419D100017D8F04016F
:1009500024BF1BD0040124510F0B266E2650020D1C
:100960006C0EF324D96E000EF420DA6EDECF2AF07E
:10097000DDCF2BF0040124510F0B266E2650010D04
:10098000760EF324D96E000E1AD0040124510F0BF9
:10099000266E2650020D680EF324D96E000EF42048
:1009A000DA6EDECF2AF0DDCF2BF0040124510F0BDD
:1009B000266E2650010D740EF324D96E000EF4201D
:1009C000DA6EDF50296E00D029B002D02A9402D00E
:1009D0002A8400D0040124BF0BD0040124510F0B42
:1009E000266E2650020D6C0EF324D96E000E0AD02E
:1009F000040124510F0B266E2650020D680EF324BD
:100A0000D96E000EF420DA6E2AC0DEFF2BC0DDFFA7
:100A100000D0030E04012119D8A430D02AC0D9FF78
:100A20002BC0DAFFDFAE1DD0040124BF0BD00401C0
:100A300024510F0B266E2650010D760EF324D96E2D
:100A4000000E0AD0040124510F0B266E2650010D12
:100A5000740EF324D96E000EF420DA6E0001DF82EA
:100A600000D02AC0D9FF2BC0DAFF000EDB842AC0D9
:100A7000D9FF2BC0DAFF000EDB8E80D0040E2A1ABD
:100A80002AC0D9FF2BC0DAFFDFAE1BD02AC0D9FFA6
:100A90002BC0DAFF7F0EDF162AC0D9FF2BC0DAFF8A
:100AA000000EDB8C000E1F6E050E1E6E2AC020F09D
:100AB0002BC021F0000E236E020E226E37EC0FF0D9
:100AC00007D02AC0D9FF2BC0DAFF000EDB8C00D084
:100AD000040E2A1A29B206D02AC0D9FF2BC0DAFF89
:100AE000DFAE32D0040124BF0BD0040124510F0B20
:100AF000266E2650010D760EF324D96E000E0AD014
:100B0000040124510F0B266E2650010D740EF324A0
:100B1000D96E000EF420DA6E0001DF9200D02AC0F8
:100B2000D9FF2BC0DAFF3B0EDF16000E1F6E050E3D
:100B30001E6E2AC020F02BC021F0000E236E020E84
:100B4000226E37EC0FF007D02AC0D9FF2BC0DAFF96
:100B50003B0EDF1600D0040124510F0B266E2650E9
:100B6000010D700EF324276E0F0EF420286E27C09F
:100B7000D9FF28C0DAFFFE0EDF1600D012000001F8
:100B8000725100017311D8B413D072C0D9FF73C071
:100B9000DAFF0001DFAE04D00001966B962B02D085
:100BA0000001966B000196510001976F986B06D07B
:100BB000000E0001986F000E976F00D00001975152
:100BC00000019811D8A45ED0400E00018E6F050E72
:100BD00000018F6F000E0001916F200E906F000ECC
:100BE0000001936F400E926F77EC10F020D08A7462
:100BF0002AD0810E0501406F81B802D0010E01D0CC
:100C0000000E0501416F0FD042EC11F0370E0501C7
:100C1000406F00D03BEC11F00009D8A4FBD7C3CF44
:100C200041F5C4CF42F5010E0001796F0CD00501EA
:100C30000051370AD8B4E8D7B70AD8B4D8D7010AD0
:100C4000D8B4D7D700D0000179510001D8A406D07C
:100C500000C540F5010E0001796F00D0000E0001C3
:100C60008E6F000E00018F6F050E0001906F400E19
:100C70000001916F010EFFEC0BF08EC072F08FC07F
:100C800073F000D00001705100017111D8B413D07D
:100C900070C0D9FF71C0DAFF0001DFAE04D00001DF
:100CA000966B962B02D00001966B000196510001C5
:100CB000996F9A6B06D0000E00019A6F000E996F23
:100CC00000D00001995100019A11D8A41CD0000154
:100CD00079510001D8B417D0010E00018E6F400E7B
:100CE00000018F6F050E0001906F400E0001916FA3
:100CF000010EFFEC0BF08EC070F08FC071F0000E93
:100D00000001796F00D01200A09A000E6A6E000EEA
:100D1000686E000E706E710E00018E6F0F0E000176
:100D20008F6F000E0001916F000E906F000E00019A
:100D3000936F010E926F77EC10F0160E6F6E9F0E90
:100D40006B6E7B0E696E000E0001966F10D013D093
:100D500000019651040D000EF324D96E040EF42008
:100D6000DA6EDE6ADE6ADE6ADD6A0001962B070E45
:100D700000019665EDD76D8C000E6E6E6D986D9CC2
:100D80000DD06896000E00017D6F000E0001636FAC
:100D9000000E0001656F000E646F00D068B6F1D7D9
:100DA000010E406E010E416E000E3D6E000E3E6E55
:100DB000000E3C6E000E0001966F010E000196655C
:100DC00001D033D000019651020D680EF324D96E84
:100DD000000EF420DA6E000EDE6E000EDD6E0001F5
:100DE0009651020D6C0EF324D96E000EF420DA6ECB
:100DF000000EDE6E000EDD6E00019651010D740EC8
:100E0000F324D96E000EF420DA6E000EDF6E0001BE
:100E10009651010D760EF324D96E000EF420DA6E91
:100E2000000EDF6E0001962BC8D7080E0001686F18
:100E3000040E0001696F160E706E040E0401036F3C
:100E4000200E026F080E0401016F040E0401006FF2
:100E50000401008F000E466E000E0001786F120034
:100E600000017805D8B46DBA08D0000E686E6980AC
:100E70006988020E0001786F00D068B469A404D0BC
:100E80006894C7EC10F000D06DB28DD068B069A046
:100E900008D075EC08F0A08A040E0001786F689005
:100EA00000D068B869A804D00CEC11F0689800D0A4
:100EB00068AC1DD069AC0FD0000E1F6E730E1E6E95
:100EC000000E206E000E216E000E236E010E226EAB
:100ED00037EC0FF000D0689C4250D8B402D04206E4
:100EE00000D04250D8A403D039EC0DF000D068BA3D
:100EF00069AA03D01AEC10F000D068B269A210D031
:100F00007F0E1F6E1E68000E206E000E216E000EFA
:100F1000236E010E226E37EC0FF0000E6A6E00D0C9
:100F2000040E0001786101D03ED069A63CD0000ECD
:100F30002F6E030E2F6401D036D068A634D06CCF4C
:100F400048F04830E832E8320F0B446E689648B4F7
:100F500007D04450010D760EF324D96E000E06D052
:100F60004450010D740EF324D96E000EF420DA6E95
:100F70000001DF7000D04450D8A403D06EEC0CF018
:100F800010D0000E1F6E720E1E6E480E206E000EE8
:100F9000216E000E236E000E226E37EC0FF001D092
:100FA00002D02F2AC6D7A19A1200800E0401201960
:100FB000D8A49AD0C00E00017D6F89D0CF0E000159
:100FC0007A6F080E00017B6F000E00017F6F120E1A
:100FD0007E6F8AD004012251D8A444D0040122514A
:100FE000020D070EF324F66E080EF420F76E0900CA
:100FF000F5CF7AF00A00F5CF7BF0020E00017A25DA
:10100000126E000E00017B21136E12C0F6FF13C09A
:10101000F7FFF86A070EF76403D00800F55005D013
:10102000F6CFE1FFF7CFE2FFE75000017E6F030E3E
:1010300000017A25126E000E00017B21136E12C092
:10104000F6FF13C0F7FFF86A070EF76403D0080035
:10105000F55005D0F6CFE1FFF7CFE2FFE7500001F2
:101060007F6F42D0000E00017D6F3ED0030E040161
:10107000226125D004012251020D010EF324F66EE7
:10108000080EF420F76E0900F5CF7AF00A00F5CFCC
:101090007BF07AC0F6FF7BC0F7FFF86A070EF764B3
:1010A00003D00800F55005D0F6CFE1FFF7CFE2FFFF
:1010B000E750126E125000017E6F7F6B15D0000E4C
:1010C00000017D6F11D0000E00017D6F0DD0040175
:1010D0002351010AD8B472D7030AD8B47BD7010AC6
:1010E000D8B4C4D7F0D700D01200A09A000E6A6E10
:1010F000000E686E000E706E710E126E0F0E136E83
:10110000000E156E000E146E000E176E010E166E98
:10111000DFEC10F0160E6F6E9F0E6B6E7B0E696E1D
:10112000000E1A6E0ED010D01A50040D000EF324CB
:10113000D96E040EF420DA6EDE6ADE6ADE6ADD6ADB
:101140001A2A070E1A64F0D76D8C000E6E6E6D9819
:101150006D9C0DD06896000E00017D6F000E0001A1
:10116000636F000E0001656F000E646F00D068B6FB
:10117000F1D7010E406E010E416E000E3D6E000E65
:101180003E6E000E3C6E000E1A6E010E1A6401D007
:101190002ED01A50020D680EF324D96E000EF420E2
:1011A000DA6E000EDE6E000EDD6E1A50020D6C0E51
:1011B000F324D96E000EF420DA6E000EDE6E000EFF
:1011C000DD6E1A50010D740EF324D96E000EF4205A
:1011D000DA6E000EDF6E1A50010D760EF324D96E12
:1011E000000EF420DA6E000EDF6E1A2ACED7080E3B
:1011F0000001686F040E0001696F160E706E040E18
:101200000401036F200E026F080E0401016F040E2B
:101210000401006F0401008F000E466E000E0001F5
:10122000786F120020EE01F03450D9263550DA22C2
:10123000DF50136E13500001645D000E6559D8B085
:1012400003D064C013F000D013500001645F000E9F
:10125000655B000E126E13D01250010D280EF324A0
:10126000D96E040EF420DA6E60C0E1FF61C0E2FFC7
:10127000DFCFE7FF0001604B612B122A00D0135033
:10128000125CD8A0E9D70001645100016511D8B4FF
:101290002DD020EE01F03650D9263750DA22080E34
:1012A000DF6E20EE02F03650D9263750DA22280EB3
:1012B000DE6E040EDD6E34C0D9FF35C0DAFFDFBC50
:1012C0000DD036C0D9FF37C0DAFF480E0CD036C07B
:1012D000D9FF37C0DAFF000EDB8E2ED036C0D9FF23
:1012E00037C0DAFF080EDF6EF2D726D020EE01F00D
:1012F0003650D9263750DA22080EDF6E20EE02F083
:101300003650D9263750DA22200EDE6E040EDD6EFE
:1013100036C0D9FF37C0DAFF040EDF6E36C0D9FF02
:1013200037C0DAFF000EDB8E0001639F3F50D8A468
:1013300003D039EC0DF000D01200040120511F0B36
:10134000E806D8A480D001D07ED004012451D8A4CE
:101350007AD001D078D0060E04012119D8B421D05A
:101360002AD01FD04604D8A426D09B0E00017A6F45
:10137000080E00017B6F000E00017F6F090E0ED07A
:10138000C00E00017D6F17D0B20E00017A6F080EFB
:1013900000017B6F000E00017F6F1D0E7E6FF0D786
:1013A0000AD004012351210AD8B4DCD7030AD8B4E7
:1013B000EBD7010A00D004012039E832030BE8061C
:1013C000D8A441D02BD03FD029D03DD04A0E000127
:1013D0007A6F000E00017B6F000E00017F6F010E1F
:1013E0007E6FC10E12D0800E00017D6F23C44AF0C3
:1013F0002AD0490E00017A6F000E00017B6F000EAB
:1014000000017F6F010E7E6F810E00017D6F1BD08A
:10141000800E00017D6F22C449F015D004012151D6
:10142000010AD8B410D0030AD8B4D0D7010AD8B46E
:10143000E0D70A0AD8B407D0030AD8B4D4D7010A2F
:10144000D8B4E6D700D012006D9800017DBF3BD024
:10145000000163AF0DD0020E436E3E50D8A403D0FE
:1014600056EC0EF000D0000E416E000E406E6AD0B9
:1014700020EE01F03650D9263750DA22080EDF6E02
:1014800020EE02F03650D9263750DA22200EDE6EDA
:10149000040EDD6E36C0D9FF37C0DAFF0C0EDF6EEA
:1014A00036C0D9FF37C0DAFF000EDB8E68C0D9FF27
:1014B00069C0DAFF040EDF6E68C0D9FF69C0DAFFC9
:1014C000000EDB8E3FD0040120AF12D0010E436E20
:1014D0003D50D8A403D056EC0EF000D0000E416E63
:1014E000000E406E3F50D8A42DD039EC0DF02AD01C
:1014F000020E436E20EE01F03650D9263750DA2224
:10150000080EDF6E20EE02F03650D9263750DA2270
:10151000200EDE6E040EDD6E36C0D9FF37C0DAFF56
:10152000040EDF6E36C0D9FF37C0DAFF000EDB8E47
:10153000000E416E000E406E3F50D8A403D039EC2F
:101540000DF000D0120004012039E832030B00092D
:10155000D8A470D04DD06ED04BD000017D8F080E36
:101560000001786F67D0D5EC07F064D01BEC0BF06E
:1015700061D0460E00017A6F000E16D000017D8109
:1015800016D000017D8F56D0D6EC0CF053D000D091
:1015900073EC04F04FD004012451010D470EF324E5
:1015A00000017A6F000EF42000017B6FE7D7010E77
:1015B00000017E6FE6D700017D8F04012451010DEB
:1015C000470EF324D96E000EF420DA6E22C4DFFF3A
:1015D00031D0000E1F6E020E1E6E000E206E000E29
:1015E000216E000E236E000E226E37EC0FF022D01B
:1015F00004012151000AD8B4C7D7010AD8B4C8D70A
:10160000020AD8B4C5D7060AD8B4A7D7030AD8B4F3
:10161000AAD7010AD8B4DDD70F0AD8B4AAD7010ACD
:10162000D8B4A4D7030AD8B4B6D7010AD8B4C3D75C
:10163000070A00D0120000017D8F710E126E0F0E8E
:10164000136E000E156E000E146E000E176E010E56
:10165000166EDFEC10F0000E126E040E136E000E0C
:10166000156E000E146E000E176E200E166EDFEC57
:1016700010F06D8C000E266E010E266401D016D07F
:101680002650010D740EF324D96E000EF420DA6E8C
:10169000000EDF6E2650010D760EF324D96E000E7B
:1016A000F420DA6E000EDF6E262AE6D7470E126EA1
:1016B000000E136E000E156E000E146E000E176EE7
:1016C000010E166EDFEC10F06D9C080E0001686FC5
:1016D000040E0001696F000E346E040E356E34C0C6
:1016E00036F035C037F022C446F04650D8A402D0B8
:1016F000100E0FD0000E1F6E010E1E6E460E206ED5
:10170000000E216E000E236E010E226E37EC0FF0DC
:10171000200E0001786F00D01200080E126E00013A
:101720007F5112E1080E00017E5DD8B00DD07EC061
:1017300012F04550D8A402D0010E04D04504D8A41C
:1017400003D0020E456E00D0125000017E5F000EE5
:101750007F5B000120EE01F06851D9266951DA2241
:1017600012C0DFFF280E386E040E396E00017DA115
:101770001ED03FD01CD07AC0F6FF7BC0F7FFF86ABE
:1017800038C0D9FF39C0DAFF070EF76403D008006C
:10179000F55005D0F6CFE1FFF7CFE2FFE750DF6E5F
:1017A00000017A4B7B2B384A392A120600D012509E
:1017B000D8B424D0E0D722D01CD07AC0F6FF7BC0AA
:1017C000F7FFF86A38C0D9FF39C0DAFF070EF764AF
:1017D00003D00800F55005D0F6CFE1FFF7CFE2FFC8
:1017E000E750DF6E00017A4B7B2B384A392A12060C
:1017F00000D01250D8B402D0E0D700D012000001BF
:10180000926F00018E510001D8B408D000019251AE
:10181000020D680EF324D96E000E07D0000192511C
:10182000020D6C0EF324D96E000EF420DA6EDECFBA
:1018300093F0DDCF94F000D000019351000194119A
:10184000D8A407D0000E00018E6F000E00018F6F2C
:1018500044D0000120EE02F09351D9269451DA22AF
:101860008FC0DEFF90C0DDFF000120EE01F093513C
:10187000D9269451DA2291C0DFFF93C0D9FF94C0DA
:10188000DAFF400EDF1693C0D9FF94C0DAFF000ED6
:10189000DB8693C0D9FF94C0DAFF000EDB8E000117
:1018A0008E510001D8B408D000019251020D680E8B
:1018B000F324D96E000E07D000019251020D6C0E78
:1018C000F324D96E000EF420DA6E040EDF1A00D075
:1018D00093C08EF094C08FF000D012002D0E426E97
:1018E00048C02CF0FD0E2C16D8A457D048C02CF0C0
:1018F000D8902C323F0E2C162C50040D000EF324E1
:10190000346E040EF420356E34C036F035C037F036
:10191000040E361A34C0D9FF35C0DAFFDF30E832A2
:101920000F0B0D0AD8A436D0000E2E6E070E2E64B3
:1019300001D023D020EE02F03450D9263550DA22DF
:10194000DECF2CF0DDCF2DF02CC0D9FF2DC0DAFF7B
:101950002E50010D200EF324E16E040EF420E26EF1
:10196000DFCFE7FF20EE02F03450D9263550DA22DF
:10197000DE2A000EDD222E2AD9D720EE02F03450C6
:10198000D9263550DA22200EDE6E040EDD6EF0EC24
:101990000EF00BD0EBEC0FF008D04850FD0B040A12
:1019A000D8A403D0FCEC0DF000D01200000E04010E
:1019B000286F000E0401296F40D000017D8F03D0F5
:1019C0000401288100D03B04D8A443D0040128831B
:1019D00040D000017D8F3DD000017D8F040124BFE8
:1019E0000BD0040124510F0B126E1250020D6C0E1D
:1019F000F324D96E000E0AD0040124510F0B126E8D
:101A00001250020D680EF324D96E000EF420DA6E27
:101A1000DECF13F0DDCF14F000D013C0D9FF14C017
:101A2000DAFFDFAE16D013C0D9FF14C0DAFFDFA48F
:101A300010D0010E0401286F0CD0040120511F0B9F
:101A4000000AD8B4BAD7010AD8B4C3D7030AD8B4A5
:101A5000C3D700017DAF0CD0280E00017A6F040EB1
:101A600000017B6F00017D81020E00017E6F00D0BE
:101A700012004050D8A45FD0010E406E4150D8A44F
:101A80005AD0010E416E020E4318D8A416D00001A0
:101A900020EE01F06851D9266951DA22000EDF6E7E
:101AA00068C0D9FF69C0DAFF480EDF6E68C0D9FF91
:101AB00069C0DAFF000EDB8E3ED04304D8A43BD0D1
:101AC000000E3A6E20EE01F03450D9263550DA225D
:101AD000080EDF6E20EE02F03450D9263550DA229F
:101AE000200EDE6E040EDD6E34C0D9FF35C0DAFF85
:101AF000040EDF6E34C0D9FF35C0DAFF000EDB8E76
:101B0000010E3A6E20EE01F03650D9263750DA2217
:101B1000080EDF6E20EE02F03650D9263750DA225A
:101B2000200EDE6E040EDD6E36C0D9FF37C0DAFF40
:101B3000800EDF6E00D01200166E1250D8B407D09F
:101B40001650020D680EF324D96E000E06D0165002
:101B5000020D6C0EF324D96E000EF420DA6EDECF87
:101B600017F0DDCF18F000D017501810D8A405D00A
:101B7000000E126E000E136E3ED020EE02F01750D3
:101B8000D9261850DA2213C0DEFF14C0DDFF20EE84
:101B900001F01750D9261850DA2215C0DFFF17C000
:101BA000D9FF18C0DAFF400EDF1617C0D9FF18C0E2
:101BB000DAFF000EDB8617C0D9FF18C0DAFF000E6F
:101BC000DB8E1250D8B407D01650020D680EF324E5
:101BD000D96E000E06D01650020D6C0EF324D96E8D
:101BE000000EF420DA6E040EDF1A00D017C012F0D7
:101BF00018C013F000D0120068C0D9FF69C0DAFF26
:101C0000000EDFBC010E136E040E0001681B080EEF
:101C100000017819D8A40DD0040122517F0B6E6EFB
:101C20006E50D8B402D0100E01D0040E0001786FAF
:101C300000D04304D8A430D0000120EE02F0685157
:101C4000D9266951DA22280EDE6E040EDD6E8DEC87
:101C50000BF0020E4518D8A40DD068C0D9FF69C09A
:101C6000DAFF040E16D068C0D9FF69C0DAFF000E93
:101C7000DB8E1BD01350D8A407D068C0D9FF69C031
:101C8000DAFF480E06D0EFD768C0D9FF69C0DAFF87
:101C9000080EDF6EE8D709D0000163AF03D0000162
:101CA000639F00D0000E436E00D01200000E3D6E08
:101CB000000E3E6E020E4318D8A41DD020EE01F097
:101CC0003650D9263750DA22080EDF6E20EE02F0A9
:101CD0003650D9263750DA22280EDE6E040EDD6E1D
:101CE00036C0D9FF37C0DAFF480EDF6E36C0D9FFE5
:101CF00037C0DAFF26D000017E510401265D0001C5
:101D00007F5104012759D8B005D026C47EF027C4DE
:101D10007FF000D08DEC0BF0000120EE02F0685156
:101D2000D9266951DA22280EDE6E040EDD6E68C0F7
:101D3000D9FF69C0DAFF480EDF6E68C0D9FF69C0FD
:101D4000DAFF000EDB8E00D01200176E000E186E48
:101D5000040E196E1250136E146AD890133614368E
:101D60001750156E166AD89015361636D890153657
:101D700016361350152614501622D89015361636DE
:101D8000D89015361636155018261650192218C038
:101D9000D9FF19C0DAFFDF9E1250D8A407D0175020
:101DA000020D6C0EF324D96E000E06D01750020DF2
:101DB000680EF324D96E000EF420DA6E18C0DEFF30
:101DC00019C0DDFF00D018C0D9FF19C0DAFFDF9CB1
:101DD00020EE04F01850D9261950DA22DF8C1200B8
:101DE000000E456E000E3F6E000E3D6E000E3E6E04
:101DF000000E3A6E000E436E68C0D9FF69C0DAFF6C
:101E00007F0EDF16040E0001681B68C0D9FF69C091
:101E1000DAFF7F0EDF16040E0001681B36C0D9FF03
:101E200037C0DAFF7F0EDF16000E00017D6F000E57
:101E300000017F6F000E7E6F000E0001636F000EC9
:101E40000001656F000E646FA3EC0AF0000E1F6EB8
:101E5000030E1E6E000E206E000E216E000E236E0D
:101E6000000E226E37EC0FF024EC0AF0120013D0B3
:101E70003DD044EC11F03AD046EC11F037D045ECAF
:101E800011F034D092EC10F031D09DEC09F02ED04E
:101E900047EC11F02BD01EC024F01FC025F02550B8
:101EA000000AD8B404D07F0AD8B41BD01FD0245065
:101EB000010AD8B4E7D7030AD8B418D0010AD8B4B5
:101EC000E4D7060AD8B412D0770AD8B40FD0010AE2
:101ED000D8B4CFD7070AD8B4D2D7010AD8B4CCD750
:101EE00005D02450FF0AD8B4D3D700D01200000187
:101EF000926F000EC26E000EC06E0001D8908E313F
:101F00003C0BC26E8EC090F00001903BF00E90171B
:101F1000300E0001901700018F510F0B000190113E
:101F2000C16E92C090F00001D89090370001D89017
:101F30009037380E0001901792C091F00001913B4C
:101F40000F0E9117070E0001911700019251800B9F
:101F50000001911100019011C06E00018EAF03D0FD
:101F60009E9C9D8CF28CC28012000600EACF83F00A
:101F7000E1CF84F0E2CF85F0D9CF86F0DACF87F0D9
:101F8000F3CF88F0F4CF89F0F6CF8AF0F7CF8BF05B
:101F9000F8CF8CF0F5CF8DF030EC07F08DC0F5FF69
:101FA0008CC0F8FF8BC0F7FF8AC0F6FF89C0F4FF32
:101FB00088C0F3FF87C0DAFF86C0D9FF85C0E2FF83
:101FC00084C0E1FF83C0EAFF82C0E9FF81C0FBFF5C
:101FD00080C0FAFF1100020E4318D8A403D012ECFF
:101FE00009F027D0000E436E3A50D8A41FD020EE3F
:101FF00001F03650D9263750DA22080EDF6E20EE77
:1020000002F03650D9263750DA22200EDE6E040E4A
:10201000DD6E36C0D9FF37C0DAFF0C0EDF6E36C07A
:10202000D9FF37C0DAFF000EDB8E03D0000E3A6E08
:1020300000D0120070A01ED034C0D9FF35C0DAFF26
:10204000800EDE18D8A415D068C0D9FF69C0DAFFA9
:10205000840EDE18D8A40DD034C0D9FF35C0DAFF05
:102060000C0EDF6E34C0D9FF35C0DAFF000EDB8EF8
:1020700000D07090689A12001D6E1AA406D0000E4F
:10208000126E1D50A5EC0EF000D01AA206D0010E63
:10209000126E1D50A5EC0EF000D01D50010D700EFB
:1020A000F3241B6E0F0EF4201C6E1BC0D9FF1CC046
:1020B000DAFF1AC0DFFF120000017851D8A416D051
:1020C000000E6D6E000E696E160E6F6E9F0E6B6EBB
:1020D0007B0E696ED08EA28AA08AF28E01D06D86A8
:1020E0006DA6FDD7010E0001786F00D012008EC0E2
:1020F00094F08FC095F00AD094C0D9FF95C0DAFF54
:1021000090C0DFFF0001944B952B00D00001920797
:10211000D8A0930700019229EFE100019329D8A4E8
:10212000EBD71200000E0001706F000E0001716FFE
:102130001E0E1A6E010E3CEC10F0000E126E000E18
:10214000136E050E146E400E156E010E9CEC0DF014
:1021500012C072F013C073F012000001936F0CD024
:102160000F0EC112000E8A6E000E936E9388938A32
:10217000928031EC11F00AD000019351000AD8B4DA
:10218000EFD7010AD8B402D0030A00D01200000E23
:102190003C6E000E1F6E740E1E6E000E206E000E42
:1021A000216E000E236E000E226E37EC0FF06D9242
:1021B000699402D0689400D068B4FCD7120012C0B1
:1021C00018F013C019F009D018C0D9FF19C0DAFFF0
:1021D00014C0DFFF184A192A00D01606D8A0170627
:1021E0001628F2E11728D8A4EFD71200000EADECA4
:1021F00010F084EC06F05CEC10F000D0200E000132
:10220000786101D0FBD76DB2F9D701D0F7D7BFEC19
:1022100005F0F4D751EF00F0698468986D82010EE3
:102220003C6E000E1F6E750E1E6E000E206E000EB0
:10223000216E000E236E000E226E37EC0FF012009E
:1022400000EE60F0200EEE6AE806FDE100EE30F0F0
:102250001B0EEE6AE806FDE1000EF86E0001F6EFD7
:1022600010F0040E00018E6FFE0E00018F6FE30E62
:1022700077EC0FF01200C2A202D0010E02D0000EC5
:1022800000D01200C28212001200120012001200CE
:020000040020DA
:08000000FFFFFFFFFFFFFFFF00
:020000040030CA
:0E00000020023F1EFF8181FF0FC00FE00F4066
:00000001FF
