:1000000000F035EF00F0FF000D82F2A42CD0000EBE
:1000100009260A2A0B220C220C500B1005E1800E37
:10002000095CBB0E0A580BE3800E095EBB0E0A5A30
:10003000000E0B5A0C5A052A0622072208220850E5
:10004000071005E1E80E055C030E06580BE3E80E09
:10005000055E030E065A000E075A085A012A0222AC
:1000600003220422F2940D92110055EF00F0096A68
:100070000A6A0B6A0C6A056A066A076A086A016AF4
:10008000026A036A046AD09ED59A070ED512D58CEF
:10009000D596D58EF28AF294F28EF28C929801A0C7
:1000A00002D08988FCD78998FAD700EE01F00C0EAF
:1000B000EE6AE806FDE10D900D92000137EF00F0C9
:020000040030CA
:0E0000002108513CFF9080FF0FC00FE00F4021
:00000001FF
