:1000000000F022EF00F0FF000A82F2A419D0000EE7
:100010000526062A072208220850071005E1800E4F
:10002000055CBB0E06580BE3800E055EBB0E065A40
:10003000000E075A085A012A022203220422F294CF
:100040000A9211004EEF00F0720ED36E900ED26E37
:100050009B8E0E0E606E140E626E056A066A076A4B
:10006000086A016A026A036A046AD09ED59A070E7A
:10007000D512D58CD596D58EF28AF294F28EF28C6A
:10008000929801A003D0096A092A01D0096A093AA5
:1000900089500918EF0B0918896EF3D700EE01F0AB
:1000A000080EEE6AE806FDE10A900A92000124EFCC
:1000B00000F0FF00FF00FF00FF00FF00FF00FF0057
:020000040030CA
:0E0000002308593CFF9080FF0FC00FE00F4017
:00000001FF
