:1000000000F01EEF00F0FF000982F2A415D06C0E84
:10001000065CDC0E0758020E08580DE3000E055E64
:100020006C0E065ADC0E075A020E085A012A000E00
:10003000022203220422F2940992110036EF00F00A
:10004000056A066A076A086A016A026A036A046A3C
:10005000D59A070ED512D586F28AF28EF28C929836
:1000600001A002D08988FCD78998FAD700EE01F068
:10007000080EEE6AE806FDE109900992000120EF02
:1000800000F0FF00FF00FF00FF00FF00FF00FF0087
:020000040030CA
:0E0000002108513CFF9080FF0FC00FE00F4021
:00000001FF
