:0408000059EF04F0B8
:08080800056ED8CF06F0E0CF29
:1008100007F00001E9CF0DF0EACF08F0E1CF09F0D1
:10082000E2CF0AF0D9CF0BF0DACF0CF0F3CF14F00F
:10083000F4CF15F0FACF16F000C00FF001C010F0A1
:1008400002C011F003C012F004C013F09DA02CEF01
:1008500004F09EB04FEF04F00FC000F010C001F0A4
:1008600011C002F012C003F013C004F00DC0E9FF84
:1008700008C0EAFF088E09C0E1FF0AC0E2FF0BC012
:10088000D9FF0CC0DAFF14C0F3FF15C0F4FF16C087
:10089000FAFF055007C0E0FF06C0D8FF1000D00ED9
:1008A000CF6EEF0ECE6E182AD8B4192A9E902CEF78
:1008B00004F0F86AD09E088EEA6AE96AC150C00B5B
:1008C0000F09C16E070EB46E186A196AC150C00BC9
:1008D0000F09C16EC290B098C69A949E938093926D
:1008E000010EC66E000EC76ED190800ED56ECD6A19
:1008F000000ECA6E000ECB6EB16A070EB46E925037
:10090000926E0400270E006E002EFED70000B45039
:10091000A19CB56A850ECD6ED00ECF6EEF0ECE6E59
:10092000C00EF2129D801950030807E303E118502E
:10093000E70803E396908D900CD01950070807E361
:1009400003E11850CF0803E396908D8002D0196A16
:06095000186AE9D703005C
:020000040030CA
:0E0000002ACE390E0087A1000FC00FE00F407E
:00000001FF
;PIC18F4550
;CRC=5B59  CREATED="18-Aug-10 21:30"
