:0400000015EF00F008
:060008001582FBEF05F07C
:100018001580E0CF0BF00CEF06F00BC0E0FF159059
:100028001000E2EF05F00051030B0D6E0C6A015150
:100038000C100E6E0D500F6E0E5001260F5002223E
:100048001FD80ED08FEC05F0F76403D00800F550E8
:1000580002D09AEC05F0DF6E084A092A034A042AFE
:100068000E06D8A00F060E28EDE10F28EBE10401DB
:1000780000AD03D0880E006F880CC80E006FC80C46
:10008800000E086E050E096E1200700ED36ED3A412
:10009800FED70F015B6B5C6B5D6B92988988928AC7
:1000A800D0B2D0A01AD0D0AE80BA17D0140E626EDB
:1000B800000E04010F6F600E0E6F0A6A076ACE6A9F
:1000C800CF6A310ECD6EECEC00F0A1EC00F09EA0F2
:1000D800FAD79E90100E891AF6D7D082D080D08E8B
:1000E80001EC01F015EF00F00F6E0F5005E16B0EFB
:1000F8001AD8040E0C6E040C0F0405E1210E13D857
:10010800140E0C6E140C020E0F1805E1470E0BD8D6
:10011800120E0C6E120C030E0F1802E1350EF7D7F3
:100128000C680D6812000E6E0C50D96EDA6A0EC09B
:10013800DEFF080EDD6E0D6A1200020E076001D0A8
:10014800020C65A405D0609201D0659465B4FDD712
:1001580060B2120065A003D0C9EC00F0659065B8E4
:10016800659865BC659C65AA06D06AA003D0FAECC0
:1001780000F06A90659A030E076001D0030C65A62B
:10018800120038EC04F065961200646A656A666AC3
:10019800676A636A160E6A6E608C609C01D0659609
:1001A80065B6FDD76098FAEC00F00A6A030E076E90
:1001B800030C0C680D68CD6A609260960C06D8A096
:1001C8000D060C28FBE10D28F9E1899801EF01F0F3
:1001D80060B604D0606A6086010E076E0704D8B462
:1001E80060BA1200656A020E076E020C066AA5EC78
:1001F80004F0880E006F046B120000EF06F0120086
:100800000009022000010100A07D0904000002FF90
:10081000FFFF0007050102400000070581024000BC
:100820000014035300650061004900630065004C3B
:1008300000610062001203310038004600320035CA
:10084000004B00350030001203500069006E006755
:1008500000750069006E006F0012010002FFFFFFCB
:1008600008D804AAFE0005010203010403090400DC
:100870006138E8461F0B146E140404E161B41200E1
:10088000ADEF04F061B446D004010041E8423F0BF3
:100890000F0B136E0D0E131837E1049F009F066AAD
:1008A000056A016A026A14EC05F0055004E14DD8AE
:1008B000840E006F26D025EE08F0DFAE15D025EEB1
:1008C0000EF00150DE5C0250DE5804E20EC501F06D
:1008D0000FC502F05DEC05F0020E066E36D8800EF4
:1008E000006FA0EC05F00CD0010E066E080E04019E
:1008F000016F050E036F000E026FC80E006F056BCF
:10090000C80E046F60981200060402E0FAEF00F0CF
:1009100017EF00F0635009E1040E071806E10AC55D
:1009200063FF635002E1030E076E020E061802E039
:10093000FAEF00F05DEC05F0040104AD03D0880E81
:10094000046F880CC80E046FC80C080E0401016FF8
:10095000050E036F080E026F120061C00FF0650EE6
:100960000E6E898804010D6B64C0F8FF63C0F7FF49
:1009700062C0F6FFA40EA66E0001602903E1DDEC63
:1009800000F046D0605105E1626B050E636F040E06
:100990003DD0600510E1A68C07D009000E50D96E3D
:1009A000DA6AF5CFDFFF0E2A0F060F28F6E1000105
:1009B0006151050F2BD0030E60190EE011D0A688EF
:1009C000550EA76EAA0EA76EA682A69800F00F017C
:1009D000400EF626000EF7220F060F28F0E115D084
:1009E000020E601908E014D00E50D96EDA6ADF509A
:1009F000F56E0E2A0D000F060F28F6E10A00550EBF
:100A0000A76EAA0EA76EA68200F0010E04010D6F5C
:100A100004010D5104E0880E0CADC80E0C6F400EA1
:100A2000096F800E086F800C08C510F0600E10165C
:100A300001E0600C09C5E8FF050A03E1010E056E3F
:100A400039D009C5E8FF060A02E1A5EF05F009C59E
:100A5000E8FF090A15E1010E056E0AC50AF00A5001
:100A600001E128D01E0E6B6E400E0C6F096F000E58
:100A70000B6F600E0A6F880E086F050E076E050C6F
:100A800009C5E8FF080A09E1010E056E0A0E086EA5
:100A9000096A026A010E016E010C09C5E8FF0A0A23
:100AA000D8A41200010E056E000EE8CF00F544EC4C
:100AB00000F0EFD7040E076E040C025008E1080E98
:100AC000015C05E201C00CF002C00DF003D00D6A1C
:100AD000080E0C6E0C50015E0D50025AFC0E040103
:100AE00004170D50030B04130CC005F429D8036E32
:100AF000050E046E0CD013D8F76403D00800F5502F
:100B000001D018D8DF6E084A092A034A042A0C06C5
:100B1000D8A00D060C28EFE10D28EDE1120008C069
:100B2000F6FF09C0F7FFF86A03C0D9FF04C0DAFF77
:100B3000070E1200F6CFE1FFF7CFE2FFE7501200F9
:100B4000050E076F000E066F120008C5E8FF800A49
:100B5000D8A412000BC5E8FF010A08E1010E056EDA
:100B6000590E2AD8026A120E016E120C0BC5E8FF4C
:100B7000020A0FE1010E056E010E1ED8030EF66E7D
:100B8000080EF76E0900F5CF01F00A00F5CF02F06C
:100B900012000BC5E8FF030AD8A41200010E056E6F
:100BA000080E0C6E25EE0AF0DF5078EC00F00CC059
:100BB00001F00DC002F01200086E0850D8A4080E13
:100BC000096E120000EE60F0400EEE6AE806FDE1EC
:100BD00000EE01F00A0EEE6AE806FDE105EE00F017
:100BE000100EEE6AE806FDE115901592000EF86E03
:0E0BF000000149EF00F004EF06F0159211002D
:020000040030CA
:0E00000003A85F3EFF9181FF0FC00FE00F408D
:00000001FF
