:020000040000FA
:040000002BEF0CF0E6
:0400080010EF10F0F5
:0800180000EF20F010003DEFA5
:1000200000F084EF09F007EF0CF075EF07F07CEFBC
:100030000BF050EF04F068EF08F013EF0CF07CEFDA
:1000400006F03FEF0CF0FEEF09F072EF05F051EF14
:100050000AF0D9EF0BF0B2EF0BF097EF0BF05CEF7B
:100060000BF035EF0CF01FEF0CF0F9EF0BF0F9EFA0
:1000700002F012EF03F0EDEF02F000C0E5FF01C067
:10008000E5FF02C0E5FF03C0E5FF04C0E5FF69A48A
:1000900005D068A403D06D926994689469A003D0D8
:1000A00068B084EC09F069A805D068A803D0698419
:1000B00068986D8269AA42D068AA40D0006A70B080
:1000C000002A0050010A39E15E50030DF3CF00F021
:1000D000F4CF01F0000184510026855101228651A0
:1000E000026A022200C0E9FF01C0F3FF025097EC50
:1000F0000BF0006EF3CF01F0F4CF02F000C0E9FF87
:1001000001C0F3FF025097EC0BF0006EF3CF01F04B
:10011000F4CF02F0F2CFE5FFF29E0500380EFD6E3F
:10012000010EFE6E000EFF6EE450F26E02C0FBFF89
:1001300001C0FAFF0050F96E7090689A030E5F5C80
:10014000D8A015D169A613D168A611D16CB4B9D0C5
:100150006C50E838E8440F0B006E0024040DF3CF18
:1001600000F0000E0026040E016A00BE01680122A4
:1001700000C0E9FF01C0EAFFEF50E840E8400F0B84
:100180000D0A01E04FD05E50030DF3CF00F0F4CF25
:1001900001F0000187510026885101228951026A2D
:1001A000022200C0E9FF01C0F3FF025097EC0BF000
:1001B000006EF3CF01F0F4CF02F06C50E838E84461
:1001C0000F0BE56AE56EE56A030EE56E51EC0AF089
:1001D000036EF3CF04F0040EE12603500026045012
:1001E0000122E86A022200C0E9FF01C0F3FF0250C9
:1001F00097EC0BF0006EF3CF01F0F4CF02F0F2CFEA
:10020000E5FFF29E0500220EFD6E020EFE6E000E50
:10021000FF6EE450F26E02C0FBFF01C0FAFF005017
:10022000F96EA4D05E50030DF3CF00F0F4CF01F0CF
:1002300000018A5100268B5101228C51026A022250
:1002400000C0E9FF01C0F3FF025097EC0BF0006E15
:10025000F3CF01F0F4CF02F06C50E838E8440F0B14
:10026000E56AE56EE56A030EE56E51EC0AF0036E91
:10027000F3CF04F0040EE1260350002604500122BF
:10028000E86A022200C0E9FF01C0F3FF025097ECC8
:100290000BF0006EF3CF01F0F4CF02F0F2CFE5FFE8
:1002A000F29E0500C00EFD6E020EFE6E000EFF6E89
:1002B000E450F26E02C0FBFF01C0FAFF0050F96E7D
:1002C00055D0006A6CB4002A0050010A01E04ED0FB
:1002D0005E50030DF3CF00F0F4CF01F000018D511B
:1002E00000268E5101228F51026A022200C0E9FFCE
:1002F00001C0F3FF025097EC0BF0006EF3CF01F05A
:10030000F4CF02F06C50E838E8440F0BE56AE56E74
:10031000E56A030EE56E51EC0AF0036EF3CF04F0CC
:10032000040EE1260350002604500122E86A02224E
:1003300000C0E9FF01C0F3FF025097EC0BF0006E24
:10034000F3CF01F0F4CF02F0F2CFE5FFF29E05000B
:100350006C0EFD6E030EFE6E000EFF6EE450F26E2C
:1003600002C0FBFF01C0FAFF0050F96E6896E4CFAF
:1003700004F0E4CF03F0E4CF02F0E4CF01F0E4CFE7
:1003800000F0120012010002FF00FF08D804AAFECC
:1003900001000102030209021200010104C0000968
:1003A00004000000FFFFFF0409022000010205C055
:1003B000000904000002FFFFFF05070501024000DD
:1003C0000007058202400000960300A80300040312
:1003D000090426034A00650061006E002D005000EC
:1003E0006900650072007200650020004D00410048
:1003F0004E0044004F004E002203500069006E0082
:100400006700750069006E006F00200050007200E8
:100410006F006A006500630074000403310010037C
:10042000440065006600610075006C0074000C03F8
:1004300046006C00610073006800CE0300D2030028
:10044000F803001A04001E04002E0400F816008AA7
:1004500018008A18008A18008A18008A18008A185A
:10046000008A18008A18008A18008A18008A180062
:100470008A18008A18008A18008A1800F8160026C0
:1004800018007E18008A18008A18008A18008A1836
:10049000008A18008A18008A18008A18008A180032
:1004A0008A18008A18008A18008A18004C04004C28
:1004B00004007C040000A008008A18008A18008A42
:1004C00018008A18008A18008A18008A18008A18EA
:1004D000008A18008A18008A18008A18008A1800F2
:1004E0008A18008A1800A008008A1800FC13008AE5
:1004F00018008A18008A18008A18008A18008A18BA
:10050000008A18008A18008A18008A18008A1800C1
:100510008A18008A1800B60400B60400E604000039
:10052000F816008A18008A18008A18008A18008AAB
:1005300018008A18008A18008A18008A18008A1879
:10054000008A18008A18008A18008A18008A180081
:10055000F81600F80C008A18008A18008A18008A19
:1005600018008A18008A18008A18008A18008A1849
:10057000008A18008A18008A18008A18008A180051
:1005800020050020050050050000D010008A18004A
:100590008A18008A18008A18008A18008A18008AA7
:1005A00018008A18008A18008A18008A18008A1809
:1005B000008A18008A18008A18008A05008A050037
:1005C0008A0500000301000000FF1F000300200057
:1005D000FF7F00010000300D0030E8060000E85009
:1005E00007E000D000D000D000D00000E82EFAD7FD
:1005F0001200E806E56E090E12EC03F0630EEDEC56
:1006000002F0E4500EE000D0E56E090E12EC03F0AB
:10061000630EEDEC02F000D000D00000E450E82EB4
:10062000F3D71200E806E56E630EEDEC02F0E4503D
:100630000BE000D0E56E630EEDEC02F000D000D0D0
:100640000000E450E82EF6D7120000C0E5FF01C01C
:10065000E5FF02C0E5FF0001A56B05010051E83888
:10066000E840030B006E005002E0E86A12D105EE8C
:1006700001F0EFCF00F0005001E103D10050010A7A
:1006800001E1FFD00050030A01E1FBD00050050A50
:1006900001E1CED00050060A1CE00050080A0DE02F
:1006A0000050090A01E1C7D000500A0A01E1E9D06F
:1006B00000500B0A01E1E5D0E1D0000E0001916F7E
:1006C0005E0E906F800E926F010E0001986F996B15
:1006D000D8D005EE03F0EFCF00F0010E005CD8A0FB
:1006E000A3D0040E005CD8B09FD0000603C0E5FF85
:1006F00004C0E5FF046A00340436E8340436FC0B19
:10070000036E000EFB6E070EFA6E220E03260450D7
:10071000FA22D8B0FB2A0350E4CF04F0E4CF03F070
:10072000F96E97EF03F0AEEF03F0E4EF03F078C05B
:1007300090F079C091F07AC092F078C000F079C062
:1007400001F07AC002F000C0E9FF01C0F3FF0250DF
:10075000D9EC0BF00001986F996B93D005EE02F085
:10076000EFCF00F00050030DF3CF00F0F4CF01F015
:1007700000017B5100267C5101227D51026A022238
:1007800000C0E9FF01C0F3FF025097EC0BF000013D
:10079000906FF3CF91F0F4CF92F090C000F091C041
:1007A00001F092C002F0020E0026000E0122022289
:1007B00000C0E9FF01C0F3FF0250B2EC0BF00001F2
:1007C000986FF3CF99F05DD005EE02F0EFCF00F017
:1007D0000050030DF3CF00F0F4CF01F000017E5183
:1007E00000267F5101228051026A022200C0E9FFE7
:1007F00001C0F3FF025097EC0BF00001906FF3CFB4
:1008000091F0F4CF92F090C000F091C001F092C04E
:1008100002F000C0E9FF01C0F3FF0250D9EC0BF079
:100820000001986F996B2DD0010E0001A56F29D0A2
:10083000040E5F6E26D078C000F079C001F07AC057
:1008400002F0110E0026000E0122022200C0E9FF74
:1008500001C0F3FF0250D9EC0BF0006E05EE02F080
:10086000EFCF01F00150005C05E3EFCFA4F0060EDE
:100870005F6E07D0010E0001A56F03D0010E0001CD
:10088000A56F0001A551D880E866D890006A0036AF
:100890000050E4CF02F0E4CF01F0E4CF00F012000A
:1008A00000C0E5FF01C0E5FF02C0E5FF03C0E5FFB2
:1008B00004C0E5FF5F50040A0BE105EE02F0EFCF44
:1008C0006EFF6E5003E0050E5F6E02D0030E5F6E8A
:1008D0000001A351010A29E1000E016E900E006E85
:1008E000800E026E000E046E980E036E800EE56E92
:1008F0000450E56E0350E56EE56A080EE56E0250A1
:10090000E56E0150E56E0050E56E000EE56A75EC8F
:1009100007F0090EE126040104BD03D0C80E046FE0
:1009200006D0880E0401046F02D07CEC0BF05F50FF
:10093000060A01E0CCD0716A726A736A746A756AD9
:10094000766A776A786A796A7A6A7B6A7C6A7D6A8B
:100950007E6A7F6A030E0001A45D1DE2AC0E0001F9
:10096000846F040E856F000E866F160E00018D6F6A
:10097000050E8E6F000E8F6F800E00018A6F050EC0
:100980008B6F000E8C6FBA0E0001876F050E886F9B
:10099000000E896F3CD00A0EF66E200EF76E000E28
:1009A000F86E0900F5CF84F00900F5CF85F0090055
:1009B000F5CF86F00D0EF66E200EF76E000EF86E77
:1009C0000900F5CF8DF00900F5CF8EF00900F5CFC5
:1009D0008FF0100EF66E200EF76E000EF86E090006
:1009E000F5CF8AF00900F5CF8BF00900F5CF8CF038
:1009F000130EF66E200EF76E000EF86E0900F5CF9E
:100A000087F00900F5CF88F00900F5CF89F0A4C080
:100A10005EF00001A45103E1050E5F6E58D00F0E89
:100A20000001A66F0001A65103E0010E006E01D087
:100A3000006A0050D8B449D00001A451030DF3CF8F
:100A400000F0F4CF01F0000184510026855101220D
:100A50008651026A022200C0E9FF01C0F3FF025082
:100A600097EC0BF0006EF3CF01F0F4CF02F0000131
:100A7000A651030DF3CF03F0F4CF04F0035000268A
:100A800004500122E86A022200C0E9FF01C0F3FF1E
:100A9000025097EC0BF0006EF3CF01F0F4CF02F0B0
:100AA000F2CFE5FFF29E0500C40EFD6E0A0EFE6E4B
:100AB000000EFF6EE450F26E02C0FBFF01C0FAFFB1
:100AC0000050F96E0001A607ADD7070E5F6EE4CFA8
:100AD00004F0E4CF03F0E4CF02F0E4CF01F0E4CF80
:100AE00000F01200D9CFE5FFE1CFD9FF00C0E5FF4C
:100AF00001C0E5FF02C0E5FF03C0E5FF04C0E5FF5C
:100B000005C0E5FF06C0E5FF07C0E5FF020EDBCF2D
:100B100000F0030EDBCF01F0040EDBCF02F0050E78
:100B2000DBCF03F0060EDBCF04F0070EDBCF05F0C2
:100B3000080EDBCF06F0090EDBCF07F000500001F6
:100B4000646F0150656F0250666F0350676F045009
:100B50000001686F0550696F06506A6F07506B6F30
:100B60000001645100016A03F3CF00F0F4CF01F0FB
:100B7000005000016E6F01506F6F00016451000161
:100B80006803F3CF00F0F4CF01F0005000016C6F68
:100B900001506D6F0001675100016803F3CF00F051
:100BA00000016F51002600506F6F00016651000177
:100BB0006903F3CF00F000016F51002600506F6F02
:100BC0000001665100016803F3CF00F0F4CF01F09B
:100BD00000016E5100266F51012200506E6F0150CE
:100BE0006F6F0001655100016903F3CF00F0F4CF8E
:100BF00001F000016E5100266F51012200506E6F0E
:100C000001506F6F0001655100016A03F3CF00F0DE
:100C100000500001736F0001655100016803F3CFBC
:100C200000F0F4CF01F000500001716F0150726FBD
:100C30000001645100016B03F3CF00F0005000018C
:100C4000776F0001645100016903F3CF00F0F4CF26
:100C500001F000500001756F0150766F0001706B5C
:100C60000001746B0001705100016C25006E0001E1
:100C7000715100016D21016E0001725100016E2160
:100C8000026E0001735100016F21036E00506C6F02
:100C900001506D6F02506E6F03506F6F0001745101
:100CA00000016C25006E0001755100016D21016E7F
:100CB0000001765100016E21026E000177510001A2
:100CC0006F21036E03C0E9FF02C0F4FF01C0F3FF10
:100CD0000050E4CF07F0E4CF06F0E4CF05F0E4CF16
:100CE00004F0E4CF03F0E4CF02F0E4CF01F0E4CF6E
:100CF00000F0E4CFD9FF1200D9CFE5FFE1CFD9FF53
:100D000000C0E5FF01C0E5FF02C0E5FF03C0E5FF4D
:100D100004C0E5FF05C0E5FF06C0E5FF07C0E5FF2D
:100D200009C4A8F0010E0001A85DD8A0C2D010C56A
:100D300000F0060E005CD8B0A7D008C0E5FF09C0DF
:100D4000E5FF096A00340936E8340936FC0B086E01
:100D5000000EFB6E0D0EFA6E700E08260950FA2278
:100D6000D8B0FB2A0850E4CF09F0E4CF08F0F96EC0
:100D7000C4EF06F0CDEF06F0DCEF06F030EF07F041
:100D800031EF07F036EF07F011C5F6FF12C5F7FF98
:100D900013C5F8FFC8EC0BF080D011C5F6FF12C5E3
:100DA000F7FF13C5F8FF050EE56E140EE56E2AEC8D
:100DB0000BF0020EE12671D0400E00019A6F9B6B82
:100DC00011C500F0016A12C502F0036A0350E56E16
:100DD0000250E56E010EE56E000EE56E51EC0AF074
:100DE000026EF3CF03F0040EE126025000260350FA
:100DF000012213C502F0036A046A056A0550E56E14
:100E00000450E56E0350E56E0250E56E000EE56E8F
:100E1000010EE56E000EE56E000EE56E72EC05F05B
:100E2000026EF3CF03F0F4CF04F0E9CF05F0080E23
:100E3000E126E86A01BEFF0E066E076E005002262C
:100E400001500322065004220750052204500001DD
:100E5000956F0350946F0250936FA1EC0AF01DD070
:100E60001CD00A0EF9EC02F0FF0017D0160E00019C
:100E70009A6F9B6BC40E0001936F050E946F000E6A
:100E8000956FA1EC0AF009D0400E0401096F100E15
:100E90000A6F050E0B6F840E086F400E0401096F78
:100EA00008BD03D0C80E086F0DD0880E0401086F6E
:100EB00009D0400E0401096F100E0A6F050E0B6F6A
:100EC000840E086FE4CF07F0E4CF06F0E4CF05F01E
:100ED000E4CF04F0E4CF03F0E4CF02F0E4CF01F07C
:100EE000E4CF00F0E4CFD9FF1200D9CFE5FFE1CF86
:100EF000D9FF00C0E5FF01C0E5FF02C0E5FF03C068
:100F0000E5FF04C0E5FF05C0E5FF06C0E5FF07C03B
:100F1000E5FF08C0E5FF09C0E5FF0AC0E5FF0BC01B
:100F2000E5FF020EDBCF00F0030EDBCF01F0040E75
:100F3000DBCF02F0050EDBCF03F0060EDBCF04F0B3
:100F4000070EDBCF05F0080EDBCF06F0090EDBCF76
:100F500007F00A0EDBCF08F006C0E9FF07C0F3FF79
:100F60000850B2EC0BF0096EF3CF0AF005500A5CA2
:100F700002E10450095C05E209C096F00AC097F04E
:100F800004D004C096F005C097F000500024046E11
:100F90000428040DF3CF00F0000E0024046E056A4F
:100FA000040E0522042AD8B0052A000196510B6EC2
:100FB00004C0E9FF05C0EAFF0BC0EFFF000E0026EA
:100FC000040E046A0422020E0026D8B0042A00C0CF
:100FD000E9FF04C0EAFFEECF00F0EFCF04F00450C9
:100FE0000001826F0050816F800E836F0001965167
:100FF000095E97510A5A09C0E5FF0AC0F4FF06C00E
:10100000E9FF07C0F3FF08501FEC0CF000019651F8
:101010009711D8B442D081C000F082C004F083C0E0
:1010200005F001C0E9FF02C0F3FF035097EC0BF09D
:10103000066EF3CF07F0F4CF08F006C0E9FF07C053
:10104000F3FF0850D9EC0BF0096E09C0E5FF00C0B2
:10105000E9FF04C0F3FF055035EC0CF00001812BD3
:1010600001E3822B02E30001832B062AD8B0072A72
:10107000D8B0082A06C0E5FF07C0F4FF08C0F6FF95
:1010800001C0E9FF02C0F3FF0350F9EC0BF0FF0EC3
:101090000001962701E29707B9D7E4CF0BF0E4CF20
:1010A0000AF0E4CF09F0E4CF08F0E4CF07F0E4CF92
:1010B00006F0E4CF05F0E4CF04F0E4CF03F0E4CF92
:1010C00002F0E4CF01F0E4CF00F0E4CFD9FF12004A
:1010D00000C0E5FF01C0E5FF02C0E5FF03C0E5FF7A
:1010E00004C0E5FF0001A36B0001986B996B25EC30
:1010F00003F0006E0050D8B46AD06D98006A050104
:1011000000BF002A0050010A01E04ED0010E00018C
:10111000A36F080E0401016F000E006E050E016E34
:101120000050026F0150036F800E006F080E006EBA
:10113000050E016E0050066F0150076F05EE06F0B8
:10114000EECF00F0EFCF01F000019951015C02E118
:101150009851005C06E205EE06F0EECF98F0EFCF76
:1011600099F0000E016E900E006E800E026E000E61
:10117000046E980E036E800EE56E0450E56E03500B
:10118000E56EE56A080EE56E0250E56E0150E56E0B
:101190000050E56E000EE56A75EC07F0090EE126D9
:1011A000C80E0401046F22D0020E0001A36F080EC6
:1011B0000401016F080E006E050E016E0050026FF3
:1011C0000150036FC80E006F056B046F0FD06D9850
:1011D000080E0401016F000E006E050E016E005036
:1011E000026F0150036F840E006F046FE4CF04F0B0
:1011F000E4CF03F0E4CF02F0E4CF01F0E4CF00F05D
:10120000120000C0E5FF0001606B616B080E626FA9
:10121000636B0001605161116211631106E0FF0E02
:101220006027612362236323F4D7000EF66E200E3D
:10123000F76E000EF86E0900F5CF00F0005030E1B7
:1012400080B82ED0010EF66E200EF76E000EF86EEE
:101250000900F5CF78F00900F5CF79F00900F5CF56
:101260007AF0040EF66E200EF76E000EF86E09008E
:10127000F5CF7BF00900F5CF7CF00900F5CF7DF0CC
:10128000070EF66E200EF76E000EF86E0900F5CF11
:101290007EF00900F5CF7FF00900F5CF80F015D082
:1012A000840E0001786F030E796F000E7A6FC80EFE
:1012B00000017B6F030E7C6F000E7D6F3A0E000104
:1012C0007E6F040E7F6F000E806FAC0E0001846F86
:1012D000040E856F000E866F160E00018D6F050ED1
:1012E0008E6F000E8F6F800E00018A6F050E8B6F60
:1012F000000E8C6FBA0E0001876F050E886F000E0E
:10130000896FE4CF00F0120000C0E5FF01C0E5FFE7
:1013100002C0E5FF03C0E5FF04C0E5FF686A7B0E7D
:10132000696E6B6A6E6A68A602D06896FCD7030E77
:101330005F6E5E6A5D6A706A716A726A736A746A05
:10134000756A766A776A786A796A7A6A7B6A7C6A89
:101350007D6A7E6A7F6A6D98100E0001A26F84C05C
:1013600000F085C001F086C002F000C0E9FF01C0B6
:10137000F3FF025097EC0BF0006EF3CF01F0F4CFC7
:1013800002F00001A205030DF3CF03F0F4CF04F047
:101390000350002604500122E86A022200C0E9FF3F
:1013A00001C0F3FF025097EC0BF0006EF3CF01F099
:1013B000F4CF02F0F2CFE5FFF29E0500D80EFD6EED
:1013C000130EFE6E000EFF6EE450F26E02C0FBFFC5
:1013D00001C0FAFF0050F96E0001A207A251D8A483
:1013E000BED7100EA26FE4CF04F0E4CF03F0E4CF39
:1013F00002F0E4CF01F0E4CF00F0120000C0E5FFFE
:1014000001C0E5FF02C0E5FF03C0E5FF04C0E5FF42
:1014100000019A519B1104E10001A851D8A436D0D3
:10142000000E00019B5D02E1400E9A5DD870000144
:10143000A86BA83700019A510401156F000E016EC8
:10144000930E006E800E026E000E046E9A0E036EF6
:10145000800EE56E0450E56E0350E56EE56A400EC1
:10146000E56E0250E56E0150E56E0050E56E020E2D
:10147000E56E75EC07F0090EE126040114BD03D0FA
:10148000C80E146F03D0880E0401146FE4CF04F06B
:10149000E4CF03F0E4CF02F0E4CF01F0E4CF00F0BA
:1014A0001200D9CFE5FFE1CFD9FF00C0E5FF01C0B1
:1014B000E5FF02C0E5FF03C0E5FF020EDBCF00F051
:1014C000030EDBCF01F0040EDBCF02F0050EDBCF05
:1014D00003F0005000019C6F01509D6F025000010D
:1014E0009E6F03509F6F00019C5100019E03F3CF3C
:1014F00000F0F4CF01F000500001A06F0150A16F87
:1015000000019C5100019F03F3CF00F000019D51A9
:1015100000019E03F3CF01F0015000260001A1510C
:1015200000260050A16FA1C0F3FFA051E4CF03F04B
:10153000E4CF02F0E4CF01F0E4CF00F0E4CFD9FF34
:10154000120000C0E5FF01C0E5FF02C0E5FF03C0D7
:10155000E5FF04C0E5FF000E00019B5D02E1400EC7
:101560009A5DD8700001A86BA83700019A51040158
:10157000156F500E166F050E176F000E016E930E4D
:10158000006E800E026E000E046E9A0E036E800EC8
:10159000E56E0450E56E0350E56EE56A400EE56EBB
:1015A0000250E56E0150E56E0050E56E020EE56EEC
:1015B00075EC07F0090EE126040114BD03D0C80E36
:1015C000146F03D0880E0401146FE4CF04F0E4CF4D
:1015D00003F0E4CF02F0E4CF01F0E4CF00F012001A
:1015E00001EC09F0EAEC0BF007EC0CF03DEC00F03C
:1015F000000EF66E200EF76E000EF86E0900F5CFA5
:1016000000F00050F1E180B8EFD792988098160E64
:10161000F66E200EF76E000EF86E0900F5CF00F0A2
:101620000900F5CF01F00900F5CF02F0F2CFE5FF98
:10163000F29E0500500EFD6E160EFE6E000EFF6E41
:10164000E450F26E02C0FBFF01C0FAFF0050F96ED9
:10165000FFD71200D9CFE5FFE1CFD9FF00C0E5FFEA
:1016600001C0E5FF020EDBCF00F0030EDBCF01F07F
:101670000A000001A96B200E0001A95D0DE200C067
:10168000E9FF01C0EAFFEFCFF5FF002AD8B0012A39
:101690000F000001A92BEFD7A68EA69CA684F29E70
:1016A000550EA76EAA0EA76EA682E4CF01F0E4CF76
:1016B00000F0E4CFD9FF1200E8AE0AD0F3CFEAFF82
:1016C000EE50EECFF3FFEECFF4FFEECFE9FF1200C6
:1016D000E8BC11D0E9CFF6FFF3CFF7FFF86E0900B1
:1016E000F5500900F5CFF3FF0900F5CFF4FF09002D
:1016F000F5CFE9FF1200120000C0E5FF01C0E5FFD1
:101700000001A36B080E0401016F000E006E050EB0
:10171000016E0050026F0150036F880E006F046B62
:10172000160E706EE4CF01F0E4CF00F01200E8AEC8
:1017300008D0F3CFEAFFEE50EECFF3FFEECFF4FF89
:101740001200E8BC0ED0E9CFF6FFF3CFF7FFF86E3A
:101750000900F5500900F5CFF3FF0900F5CFF4FFBC
:1017600012001200E8AE06D0F3CFEAFFEE50EECF43
:10177000F3FF1200E8BC0BD0E9CFF6FFF3CFF7FF81
:10178000F86E0900F5500900F5CFF3FF12001200C2
:10179000D9CFE5FFE1CFD9FFA68EA69CA684A68867
:1017A000F29E550EA76EAA0EA76EA682E4CFD9FFB1
:1017B0001200E8AE04D0F3CFEAFFEE501200E8BC0E
:1017C00008D0E9CFF6FFF3CFF7FFF86E0900F55028
:1017D00012001200696A140E6F6E080E6D6E6DBAFB
:1017E000FED7686A110E696E020E5F6E5E6A5D6AF0
:1017F0001200E8AE09D0F3CFEAFFE4CFEEFFF4CF5A
:10180000EEFFF6CFEEFF1200E8AC12001200D9CFC7
:10181000E5FFE1CFD9FF6DA203D0A08A0300A19A12
:10182000E4CFD9FF1200400E0401096F100E0A6FB9
:10183000050E0B6F880E086F1C0E716E1200E8AE5D
:1018400007D0F3CFEAFFE4CFEEFFF4CFEEFF1200B4
:10185000E8AC1200120012EEFEF022EEFEF0F86A82
:10186000A68EA69CF0EC0AF0FFD7E8AE05D0F3CF29
:10187000EAFFE4CFEEFF1200E8AC12001200480EBF
:0C1880000401146F1A0E726E12001200A8
:10200000FF000000000000000000000000000000D1
:0A20100000000000000000000000C6
:10202000E8CFE5FFD8CFE5FFE0CFE5FFF3CFE5FF51
:10203000F4CFE5FFE9CFE5FFEACFE5FFFACFE5FF13
:10204000FBCFE5FFE4CFFBFFE4CFFAFFE4CFEAFFED
:10205000E4CFE9FFE4CFF4FFE4CFF3FFE4CFE0FF08
:0A206000E4CFD8FFE4CFE8FF100042
:10400000E8CFE5FFD8CFE5FFE0CFE5FFF3CFE5FF51
:10401000F4CFE5FFE9CFE5FFEACFE5FFFACFE5FF13
:10402000FBCFE5FFE4CFFBFFE4CFFAFFE4CFEAFFED
:10403000E4CFE9FFE4CFF4FFE4CFF3FFE4CFE0FF08
:0A404000E4CFD8FFE4CFE8FF100042
:020000040030CA
:0E000000240E3F1EFF8181FF0FC00FA00F4096
:00000001FF
