:020000040000FA
:06000000B2EF0DF012004A
:0600080004EF12F01200EB
:060018000CEF12F01200D3
:06002A000100821B000032
:080030006000000080000000E8
:0800380004011151FE0A17E05A
:10004000010A01E012000001040EEB6F0F0EE66ED4
:10005000710EE66E0F0EE66E62EC0BF0E552E552A5
:10006000E55271A002D0719090D8689A12000001F8
:10007000040EEB6F0401206B010E0001F06FF16BB9
:100080000001200EEC6F040EED6F0001F9931200D9
:1000900074DB050EE126020E0301005D07E1095144
:1000A0000A110B110C1114E0DED868D0030E005DAC
:1000B00011E109510A110B110C1160E104015B51AE
:1000C00007E15751581159115A1102E0020E5B6FA6
:1000D000ADD854D004010851800B50E10301005108
:1000E0004DE130C401F331C402F332C403F333C42D
:1000F00004F334C405F335C406F336C407F337C438
:1001000008F338C409F339C40AF33AC40BF33BC407
:100110000CF33CC40DF33DC40EF33EC40FF3DF6A91
:1001200004013E51DF5C13E2DF50EA6A3F0FE96EE3
:10013000040EEA22EF50E66EDF50EA6A100FE96E15
:10014000030EEA22E552E750EF6EDF2AE9D709C431
:1001500020F31FD9000911E02ED900090EE045D97E
:10016000800E03010D5D02E1020E05D00D5104E188
:1001700041DB0301030E006F18D825DB050EE15C9F
:1001800002E2E16AE552E16EFDD21E0E716EEDDA19
:10019000880E086F0401000E0E6F060E0F6F400EE2
:1001A0000C6F12000301006B120003011051230AAF
:1001B00028E0380A24E0340A20E02F0A1CE01E0A56
:1001C00018E0040A14E0190A10E0290A0CE0020AF7
:1001D00008E00D0A04E0370A16E119D921D056D9F2
:1001E0001FD079D91DD0D4D91BD02EDA19D04ADA34
:1001F00017D056DA15D05FDA13D076DA11D076DA66
:100200000FD054D90DD020D9030123812393238506
:100210002397200E2D6F2E6B0401010E5B6FA0DA69
:100220000301000E336F060E346F120004010CBF81
:10023000FDD74F0E0E6F040E0F6F0D0E0D6FE2DA2D
:1002400094DA0301006B120098DA04010CBFFDD7A9
:10025000FD0EDBCF0EF4FE0EDBCF0FF4FC0EDBCF7A
:100260000DF4D0DA8FD289DA050EE12604015B5154
:1002700017E1400E575D000E5859000E5959000EF7
:100280005A590EE3400EE66E33C3E6FF34C3E6FF71
:100290002FDA5A5B400E03013327000E342372D04D
:1002A0005B5154E073DA06E2400E0B6E0C6A0D6A85
:1002B0000E6A08D009C30BF00AC30CF00BC30DF093
:1002C0000CC30EF0010E0BC0DBFF020E0CC0DBFFF7
:1002D000030E0DC0DBFF040E0EC0DBFFDF6ADFCFB5
:1002E0000BF00C6A0D6A0E6AD950010FE96EDACF75
:1002F000EAFFEE500B5CEE500C58EE500D58EE50ED
:100300000E5804E286DAEF6ADF2AE9D73FDA05E21F
:10031000400EE66E97DAECD917D009C3E6FF92DA01
:1003200086DA0301096B0A6B0B6B0C6B0951040134
:10033000575F03010A510401585B03010B5104018B
:10034000595B03010C5104015A5B1CD057C4E6FFF2
:1003500033C3E6FF34C3E6FF6ADA040157510301F1
:10036000095F0401585103010A5B0401595103015B
:100370000B5B04015A5103010C5B2DDA096B0A6B0C
:100380000B6B0C6B050EE15C02E2E16AE552E16E7B
:10039000F9D11F0E0301205D0CE1550E011908E192
:1003A000530E021905E1420E031902E1430E04192E
:1003B00001E0000C010C03010E510F0815E30F5171
:1003C000100812E3010E0F5D0FE3800E0D5D02E0D9
:1003D000000E01D0010E0B6E0D5102E0000E01D097
:1003E000010E0B1001E0010C000C05C353F406C311
:1003F00054F407C355F408C356F40401550E4F6F67
:10040000530E506F420E516F530E526F1200240E56
:10041000E66EE66A200E0B6E1B0E0C6E0D6A0BC0AC
:10042000E6FFE66E0DC0E6FF0DDAF3EC0CF00E6EA3
:10043000070EE15E0E50CFD9050E0301095D0601DE
:10044000046F04015B6B120003012191219321953C
:1004500021972189218B218D219F226B2391239329
:1004600023952397239B239D239F246B256B266B2A
:10047000276B0A0E286F296B2A6B2B6B2C6B2D6B4D
:100480002E6B2F6B306B316B326B12000601006BE1
:10049000016B130E026F880E036F046B056B020E67
:1004A000066F076B0401080EF4EF03F00601006B02
:1004B000016B026B080E036F046B056B130E066F66
:1004C000880E076F020E086F096B0A6F0B6B040131
:1004D0000C0EF4EF03F051D9080EE12618D9070EDF
:1004E00011C3DBFFB4D9010EDBCF0BF0020EDBCF63
:1004F0000CF00D6A0E6AA0D9EE500B26EE500C22BD
:10050000EE500D22EE500E22D880FF0E0B547E0EC0
:100510000C54000E0D54000E0E540BE2010E5B6FD6
:1005200003012381239323852397210E2D6F2E6BA7
:1005300028D000D926E2010EDB06020E01E2DB061E
:1005400004D92BEC04F00B6E060EE15E0B50DF6E4F
:1005500028D9DF0412E104015B6B576B020E586F60
:10056000596B5A6B0301000E336F060E346F20D99E
:1005700002E279DEFCD7F4D8DCD70401010E5B6F10
:10058000EFD8080EE15C02E2E16AE552E16EFAD0D2
:10059000F4D8080EE126010EF36E070EF3CFDBFF51
:1005A000B6D804015B6BC6D848E20401576B020E53
:1005B000586F596B5A6BFCD82FE205D9040108BF5C
:1005C000FDD72ED90301095F0C500A5B0D500B5B60
:1005D0000E500C5B25D90401575F0C50585B0D5031
:1005E000595B0E505A5B0401400E096F0A27000E3A
:1005F0000B23070EDBCFE6FFA8D802EC05F00B6E4D
:10060000070EE15E0B50DF6E070EDB6ADF50D3E1B1
:100610000401010E5B6FCFD7C4D8010EDB06020EBA
:1006200001E2DB0687D807E2E5D8010EF36E070E7C
:10063000F3CFDBFFB8D799D8B6D7080EE15C02E25A
:10064000E16AE552E16E9ED098D8E652DF6ADF504B
:100650000B6E0C6A120E0B5C000E0C580EE2DF5093
:10066000EA6A210FE96E030EEA22EF50E66ED1D856
:10067000E552E750EF6EDF2AEAD70401120EB4D834
:10068000E55280D00601030E006F016B026B036B15
:1006900004015B6B040E576F586B596B5A6B120059
:1006A0000401010E5B6F030123912383239523979C
:1006B0000401B0EF03F004015B6BC6DE040150D807
:1006C0000001F351080B03E1F351010B0CE1F39727
:1006D000030123912383238523973A0E2D6F2E6BDD
:1006E0000401010E5B6F120027EF04F027EF04F006
:1006F0009ED8400E0301095F000E0A5B0B5B0C5B8A
:10070000400E0401575F000E585B595B1200060E45
:1007100012C3DBFF050E13C3DBFF040E14C3DBFFA4
:10072000030E15C3DBFF020E17C3DBFF010E18C358
:10073000DBFF1200D950010FE96EDACFEAFF000E9D
:10074000D880EE54000EED5412007CD875D8EECF50
:10075000E6FFEECFE6FFEECFE6FFEFCFE6FF1200BB
:10076000576B586B596B5A6B120004011F0E096FBF
:10077000300E0A6F040E0B6F1200D9CFE6FFE1CFE7
:10078000D9FF1200E552E7CFD9FF1200D880400E02
:1007900003010955000E0A55000E0B55000E0C55AD
:1007A00012004AD8EE2A000EEE22EE22EE221200AD
:1007B000D880000E04015755000E5855000E5955AB
:1007C000000E5A551200400E04010817087D880ECD
:1007D0000813C0EF0AF009C357F40AC358F40BC357
:1007E00059F40CC35AF41200576F586B596B5A6B7B
:1007F0005B6B12000401400E096F000E0A6F060EBB
:100800000B6F1200400E0C170C7D880E0C13C0EFFE
:100810000AF0DF50EA6A000FE96E060EEA221200C3
:1008200009C40BF00C6A0D6A0E6A0B5012000CDD45
:10083000E552E552E5521200D950030FE96EDACFC6
:10084000EAFF1200000EE66E060EE66E12000401CC
:060850005B6BB0EF03F04A
:0A08560021DB060EE126F90EDBCFD0
:10086000DEFFDBCFDDFFD950020FE96EDACFEAFF02
:10087000600EEE6E000EED6E040EDB6A050EDB6A96
:1008800036DB000E0B5C020E0C580AE2F1DA01E3D3
:10089000DB2AEF6A040EDB2A050EF2E3DB2AF0D72F
:1008A0002DDB0E0E061801E1075001E17FD0090E85
:1008B000061801E107503CE0010E061801E107505F
:1008C00021E0050E061801E107501CE0065001E08A
:1008D0008FD0075001E08CD03E0EE66EE66A4C0EDB
:1008E0000B6E180E94DACBDA29DBFE0EE926010E28
:1008F000EA22550EEF6E22DBFF0EE926010EEA22F8
:10090000AA0E43D01BDBF80EEF6E010E1EDB020EAB
:100910001CDB030E1ADB040E18DB050E16DB080EBB
:1009200014DB090E12DB060E10DB070E0EDB60D0A7
:10093000800EE66EE66A8A0E0B6E180E68DA9FDA93
:10094000280E16DBF3CF0BF0F4CF0CF0F350F410BD
:100950001EE0290E0DDBF3CF0DF0F4CF0EF0F350B7
:10096000F41015E0010EE66E30DAE55200090FE0F2
:10097000280E62DA630E44DAE552E750EF6E290E74
:100980005BDA640E3DDAE552E750EF6E31D0630E6C
:1009900037DA420EEF6E640E33DA410EEF6E650EFB
:1009A0002FDA440EEF6E0001F38922D0D9DA67DA2C
:1009B0004ADA0BC0DEFF0CC0DDFF040EDB6A050E59
:1009C000DB6A95DA800E0B5C000E0C5811E277DAC8
:1009D00001E3DB2AEF50E66E4BDA01E3DB2AE55256
:1009E000E750EF6E040EDB2A050EEBE3DB2AE9D7B6
:1009F000010E0B6E060EE15C02E2E16AE552E16E69
:100A00000B5050D24ADA060EE126600EDE6E000E62
:100A1000DD6EF80EDB5012E0F90EDBCF37F3FA0E85
:100A2000DBCF38F3080E03013727000E382300010F
:100A3000F39D070EE5D9EF0401E1F38DF6D9000E21
:100A400046DA04E3F2D9090E42DA32E3EED9090EAE
:100A5000EE1835E1EE5033E1EE5031E1EE502FE18A
:100A6000200E8DDA15E10001F351010B11E0F80EB3
:100A7000DB500EE0A198F351100B03E1F351080B8A
:100A800002E0F37713D00001F56B0001F39110D071
:100A9000F80EDB500DE10001F351010B09E0600E8F
:100AA0006EDA03E0400E6BDA03E1F387000E93D0B9
:100AB000280EE66E79EC0DF0E552010E8CD00001A7
:100AC000F351020B1CE1F351040B19E1F80EDB505A
:100AD00016E0060E3DDA0DE10001F383F399FD0EF9
:100AE000E66EE66A27DA0001AA0EF66F0001F76BE0
:100AF00006D036DAB5D903E10001F385F38BF80EA1
:100B0000DB5068E1050E24DA65E10001F3A334D07F
:100B1000020E03010C6A37250B6E38510C220BC0F4
:100B2000E6FF0CC0E6FF37C3E9FF38C3EAFFEECFAC
:100B3000E6FFEFCFE6FF58D8E552E552E552E55221
:100B400037C3E9FF38C3EAFFEECF0BF0EFCF0CF06D
:100B50000D6A0E6AC00E0B180AE17F0E0C1807E131
:100B60000D5005E10E5003E10001F393F387480EA9
:100B700003013727000E38230001F3A52BD063D9DA
:100B8000020E0BC0DBFF030E0CC0DBFF040EDB6AA2
:100B9000DB500B6E0C6AD8900C5004E6800E0B5C98
:100BA000000E0C5814E2040EDBCFE6FF98D9E66E77
:100BB000C1D985D901E3DB2AEF50E66E59D901E3AB
:100BC000DB2AE552E750EF6E040EDB2AE1D7000185
:100BD000F395F387010E0B6E060EE15C02E2E16A0B
:100BE000E552E16E0B505ED158D9070EE126DE5278
:100BF000020EDD6E060EDB6A0001F3B9D9D085D98D
:100C0000FF0ED880EE54230EED5405E2010EF36E74
:100C1000060EF3CFDBFFFB0EDBCF0BF0FC0EDBCFC2
:100C20000CF0020E0B5E000E0C5A040E0BC0DBFF24
:100C3000050E0CC0DBFF70D9F86A060EDB5005E02C
:100C4000A66AA68EA688A684BAD8A66AA68EA68408
:100C500055D9020E06C0DBFF030E07C0DBFFDF6ABB
:100C6000200EDF5C54E20001F3AD32D0010EE76EDE
:100C70005AD9E750E926000EEA22EFCF0EF053D9F9
:100C8000EFCF0DF00F0EDF14750F0C6E0001F65153
:100C9000E8240C180D180E180B6EF8D80B50EF1A2C
:100CA000F5D8EF500001F71B0F0EDF5C03E01F0EBD
:100CB000DF5C0EE1F7510001F61B0001F76BD95024
:100CC000040FE96EDACFEAFF120EEE26000EED22D7
:100CD000DDD8EFCF0BF0DF50E76E1ED9E750F626D8
:100CE000000EF722F86A0BC0F5FF0C000F0EDF5C58
:100CF00003E19BD8DBD809D0FB0EDBCF0BF0DB2A5E
:100D0000FC0EDBCF0CF001E3DB2ADF2AA9D7060EAD
:100D1000DB5040E054D8DF6A200EDF5C3BE2FD0E82
:100D2000DBCF0CF0FE0EDBCF0DF00E6ADF500F6E46
:100D3000106A116A0C500F24F36E0D501020F46EDF
:100D40000E501120F86EF4CFF7FFF3CFF6FF080036
:100D5000F5CF0BF0C4D80B5C08E00001F389FD0E61
:100D6000E66EFA0EE66EE6D823D00F0EDF5C07E1E2
:100D7000D950020FE96EDACFEAFF98D809D0020EF7
:100D8000DBCF0BF0DB2A030EDBCF0CF001E3DB2A19
:100D9000DF2AC2D7BAD8200EEE26000EED2245D8A3
:100DA000020EEE26000EED22010EDB0601E04DD70D
:100DB000070EE15C02E2E16AE552E16E73D0550E86
:100DC000A76EAA0EA76EA682120067D8A66AFE0EAC
:100DD000DB50A96EA680A85065D05FD8A66AA6840D
:100DE000FD0EDB50A96EFE0EDB50A86E550EA76EF1
:100DF000AA0EA76EA682A6B2FED7A198A66A52D066
:100E0000E76E9CD8E750E926000EEA2212000C6E2D
:100E10000D6A0BC0E6FFE66E0DC0E6FFF90EDBCFF4
:100E2000E6FFFA0EDBCFE6FF1200D950FB0FE96EAA
:100E3000FF0EDA20EA6E1200F66E240EF76E08003E
:100E4000F550E66E1200060EE76EF90EDBCF0BF0E2
:100E5000FA0EDBCF0CF0E7500B26000E0C2212002E
:100E6000D4EC0CF00E6E070EE15E0E50000912007D
:100E7000DFCFE9FFDF2A010EDBCFEAFF1200F3EC40
:100E80000CF00E6E070EE15E0E501200FB0EDBCF73
:100E9000E9FFFC0EDBCFEAFF1200D9CFE6FFE1CF7E
:100EA000D9FF1200E552E7CFD9FF1200030EEE265C
:100EB000000EED22EECF0BF0EFCF0CF01200020E81
:100EC000DBCFE9FFDB2A030EDBCFEAFF1200EE5C8B
:100ED000000EEE58000EEE58000EEE581200020EF4
:100EE000DBCFE9FF030EDBCFEAFFEF501200040E69
:100EF000DBCF0BF0050EDBCF0CF01200FB0EDBCFCF
:100F000006F0FC0EDBCF07F01200D950FD0FE96EA2
:100F1000FF0EDA20EA6E1200FD0EDBCFF6FFFE0EAA
:100F2000DBCFF7FF1200040EDBCFE9FF050EDBCFAE
:100F3000EAFF120052DFE552E5521200F90EDBCF54
:100F4000E9FFFA0EDBCFEAFF12005ADFEF6812006A
:100F5000E66EE66A400E0B6E180E59DF30EF07F0B2
:100F6000060EE66EE66A460E0B6E180E07EF07F0E9
:100F700063DFE66A60EC0DF0E552E552120040DFF7
:060F8000EF50E50812002D
:0A0F86006C500CE168960401005164
:100F90003C0BE842E8420D0802E10AD8010C3BD8BC
:100FA000010C040E6C5C03E1689644D8010C000C43
:100FB00070D9E652040104BF046B0001F26BEA6BC6
:100FC000EB6BF06BF16B5AEC09F0DF6ADF500B6EE4
:100FD0000C6A010E0B5C000E0C581AE20001EB517A
:100FE00017E1F76ADF34FE0BF736F66E880EF62649
:100FF0001A0EF7220900F5CF0BF00800F5CF0CF020
:1010000004D00CC0FAFF0B50F96EFBDFDF2ADED7ED
:10101000ACD8E55243D1020E0001EA5D09E179D86E
:10102000040100BD02D0C80E01D0880E006F12006E
:10103000EEEF08F0040E0001F85D09E112C46EFF46
:101040006E50000802E2050E01D0030EF86F000199
:10105000EA0510E111D8020E0001F25D03E104017E
:10106000840E06D0040104BD02D0C80E01D0880E43
:10107000046F1200EEEF08F00CD9020EE126000119
:10108000100EF05D000EF1590DE2F0C0DEFFF1C070
:10109000DDFFF25102E1010E03D0F20506E1020E7E
:1010A000F26F03D0100EDE6EDD6A0401049304912A
:1010B000010EDB500413DFCF05F4000EDB500001FE
:1010C000F05F010EDB50F15B200EEE6F040EEF6F50
:1010D0000001F9A30CD0D6D815E0ECC0F6FFEDC0A6
:1010E000F7FF0800F550BED8F6E2DB06F4D7CAD801
:1010F00009E0ECC0E9FFEDC0EAFFEF50B3D8F7E23A
:10110000DB06F5D7020EE15C02E2E16AE552E16E30
:10111000C5D0BFD8020EE126030E04010015E76E0C
:10112000010EE7CFDBFF01C4DFFFDE500001F02737
:10113000DD50F123200EEC6F040EED6FA3D80EE00E
:10114000ECC0E9FFEDC0EAFFEF50EEC0E9FFEFC0F1
:10115000EAFFEF6EA7D8F2E2DB06F0D7020EE15C01
:1011600002E2E16AE552E16E99D06D980001EB511F
:1011700005E180D8840E006F04011DD0040110AF7A
:101180001CD00001F0510401165D0001F151040171
:10119000175904E216C4F0F017C4F1F06DDF000136
:1011A000010EEA6F67D8800E006F0401200E066FF3
:1011B000040E076FC80E046F12000001020EEA6FE2
:1011C0000401056BC80E046F0401100E016F200EA0
:1011D000026F040E036FC80E006F12005AD8E65259
:1011E000020E0001EA5D35E16D50100B32E00401A2
:1011F00001510B6E0C6A100E0B182BE10C5029E1FB
:1012000000513C0BE842E8420D0823E10051800BFD
:1012100020E1100E026F040E036FDF6ADF500B6EC9
:101220000C6A100E0B5C000E0C581AE2DF50EA6AD2
:10123000200FE96E040EEA22EF50E66EDF50EA6AF4
:10124000100FE96E040EEA22E552E750EF6EDF2A36
:10125000E5D70001EA6B0ED88C0E006F0401046B19
:10126000E5521CD0EEC0E9FFEFC0EAFFEF6E0001CF
:1012700052EF09F00401100E016F100E026F040E00
:10128000036F1200D9CFE9FFDACFEAFFEE50ED107D
:101290001200D9CFE6FFE1CFD9FF1200E552E7CF28
:1012A000D9FF1200EE2B000EEF23EC2BED23DF060F
:0412B000010E120019
:0C12B40004011051600BE842E842E842DF
:1012C000E842E842000901E012001151070A40E03B
:1012D0000B0A3EE0070A33E0010A23E00B0A1FE095
:1012E000020A1DE0030A19E0080A10E0010A0CE0F6
:1012F0000F0A08E0030A01E0120018D90001040EE9
:10130000F86F1200A9EF09F0E6EF09F00FD900011C
:10131000FA0EEC6F000EED6F0CD001EF0AF033EF18
:101320000AF008D90001EC6FED6BFB0EEC27000E04
:10133000ED230001F9930001010EF06F1200FAD8BD
:10134000EA6AFB0FE96E000EEA2212C4EFFF1200F8
:101350001200800E0401105D38E11351030A22E0EF
:10136000010A0AE0030A2FE1E1D800012C0EEC6F1C
:101370001A0EED6F120E24D0020E125D24E2B5D8C3
:10138000820EF6261A0EC3D8020E0001F76AEC256B
:10139000F66EED51F7220900F5CFF0F00A00F5CF17
:1013A000F1F011D0020E125D0EE29FD8840EF626E7
:1013B0001A0EADD8ECC0F6FFEDC0F7FF0800F550EF
:1013C0000001F06FF16B0001F9831200AFD80F0E2E
:1013D000E66E710EE66E0F0EA2D8010EE66EFB0EE3
:1013E000E66E000E9CD812C4FAF00401125104E11A
:1013F0000001050EF86F12000001060EF86FC5EF30
:1014000000F00401206B216B040110511F0B020A34
:101410000FE0030A0BE0010A18E188D804012081DB
:101420000001F9A112D0040120830FD07FD80DD084
:1014300050D801E0010E62D8EEC0E9FFEA6EEF502D
:10144000040B03E00401010E206F0001EB050AE12B
:101450000001200EEC6F040EED6F0001F993000106
:10146000020EF06F1200040112050EE110511F0B65
:1014700000090AE15BD8030E0401115D03E10001DC
:10148000F98102D00001F9910401125121E11051BA
:101490001F0B02081DE114510F0B000919E019D8A8
:1014A00001E0010E2BD8030E0401115D02E1840E50
:1014B00003D014AF07D0400EEEC0E9FFEFC0EAFF43
:1014C000EF6E1200880EEEC0E9FFEFC0EAFFEF6E8C
:1014D000120030D80F0B080DF3500C6A000F0B6E82
:1014E000040E0C221451800B120020D8040112515A
:1014F000F66EF76AD890F636F7361200040DF35000
:1015000000010B24EE6F000E0C20EF6F1200F7228B
:101510000900F5CFECF00A00F5CFEDF01200E66E11
:1015200062EC0BF0E552E552E55212000001010EAB
:0C153000EB6F1200FBDF040114511200ED
:04153C0080A204D0B5
:101540006DB604D00FD802D06DB613D80001F805DF
:1015500008E16DBA06D0686A696A69806988020E16
:10156000F86F12006D6A696A6D860001010EF86FEE
:1015700012006D6A696A0001F86B1200B9EF0AF097
:101580000001F85101E112006850040B04E06950B9
:10159000040B01E042D86DB212006850010B04E068
:1015A0006950010B01E066D86850100B04E06950E7
:1015B000100B01E02ED86850400B04E06950400B3E
:1015C00001E044D86850200B04E06950200B01E092
:1015D0003FD86850020B04E06950020B01E048D884
:1015E000030E0001F85D01E212000001FC6B040E25
:1015F000FC5D0EE26850080B0BE06950080B08E038
:10160000C3EC07F0000901E168960001FC2BEFD75D
:101610001200698468986D8212006D92699468A4C2
:1016200002D06894FCD712000001F9A10ED06D928F
:101630006D840001F80EFD6F2A0EFE6FFD07000E8F
:10164000FE5BFD51FE11FAE16D941200689C1200E0
:1016500070A00CD0800E0401005D07E1840E04012F
:10166000045D03E104018C0E006F7090689A120013
:101670006A6A12006A6A686A9F0E6B6E7B0E696EF8
:101680006E6A0F0EE66E710EE66E0F0EE66E1AD8DB
:10169000E552E552E552160E706E68A608D06896BF
:1016A000000000000000000000000000F6D76D9868
:1016B000EEEC08F00001F9910001FA6B0001030E55
:1016C000F86F1200D9CFE6FFE1CFD9FFFD0EDBCFD7
:1016D000E9FFFE0EDBCFEAFFFC0EDB5004E0EE6A12
:0E16E000FC0EDB06F9D7E552E7CFD9FF12006A
:0216EE00815029
:1016F000100B17E02A0EF66E240EF76E0800F55058
:10170000AA080FE1FE0EE66EE5EC06F0E552EE08E3
:1017100008E0E668E5EC06F0E552400802E000EF7C
:1017200012F028D87CD89EEC0AF0C0EC0AF048EC05
:1017300000F00001F3B11CD00001F551030818E2DC
:10174000FE0EE66EE66AEDEC06F0E552E552E6685E
:10175000E66AEDEC06F0E552E552BEEC0AF0000157
:10176000F56B040E0001F55D02E259D8FAD766D890
:10177000D9D71200D9CFE6FFE1CFD9FFE6520F0E3D
:10178000C16E8B6A8A6A896A946893689268160E39
:10179000E66E45EC0DF0E5520001F46BF56BF36B72
:1017A0000F0E8A6EDF6ADF500B6E0C6AD8900C50F9
:1017B00004E6800E0B5C000E0C5811E2DFCFE6FF52
:1017C000E5EC06F0E552E66EDF50EA6A600FE96E7E
:1017D000000EEA22E552E750EF6EDF2AE4D7FE0E54
:1017E000E66EEE0EE66EEDEC06F0E552E552E668CA
:1017F000400EE66EEDEC06F0E552E5520001F38195
:10180000140E6F6E0001F86B0001F96B0001FA6BAA
:10181000D2EC00F0E552E552E7CFD9FF12009EA2CC
:101820000CD09E920001F42BF4510B6E0C6AC80E82
:101830000B1803E10C5001E1F52B1200FF00120020
:10184000C1D2D30000A1C1D2D30000ABEB3C904D7C
:1018500053444F53352E30000201010002400088EE
:1018600013F8040000000000000000000000000069
:10187000000029AABBCCDD4E4F204E414D45202013
:10188000202046415431362020204C4F41444552BF
:1018900020202020200800000000000000000000A0
:1018A0000000C138000000000000424F4F542020CB
:1018B0002020202020000000000000000000000088
:1018C0000000C138020000020000434F4E46494765
:1018D0002020202020000000000000000000000068
:1018E0000000C13803000002000046575F2020209E
:1018F0002020202020010000000000000000000047
:0A1900000000C138040000020000DE
:06190A002A0EF66E000E2D
:10191000F76E000EF86E00010900F550E56F090042
:10192000F550E66F03E1E56701D03DD00900F550C1
:10193000E06F0900F550E16F0900F550E26F090012
:101940000900F550E96E0900F550EA6E090009003A
:101950000900F550E36F0900F550E46F0900090034
:10196000F6CFE7F0F7CFE8F0F8CFE9F0E0C0F6FF08
:10197000E1C0F7FFE2C0F8FF0001E35302E1E453E6
:1019800007E00900F550EE6EE307F8E2E407F9D747
:10199000E7C0F6FFE8C0F7FFE9C0F8FF0001E50780
:0819A000000EE65BBFD7120048
:0819A800FB0EE3CFF6FFFC0E7D
:1019B000E3CFF7FFFD0EE3CFF8FFFE0EE3CFE9FF25
:1019C000FF0EE3CFEAFFF90EE35003E1FA0EE35016
:1019D00009E0F90EE30602E2FA0EE3060900F5500B
:1019E000EE5CF1E01200FB0EE3CFF6FFFC0EE3CF5E
:1019F000F7FFFD0EE3CFF8FFFE0EE3CFE9FFFF0E8A
:101A0000E3CFEAFFE9CFF3FFEACFF4FFF90EE350AB
:101A100003E1FA0EE35009E0F90EE30602E2FA0EE2
:0C1A2000E3060900F5CFEEFFF1D712003D
:041A2C0012010002A1
:101A30000000001081171B0E0001010100010902C6
:101A40002000010100C096090400000208065000B1
:101A50000705810240000007050102400000040361
:101A6000090420034600690072006D0077006100E0
:101A70007200650020004C006F006100640065008A
:0A1A800072003E1A5E1A621A380066
:061A8A00D9CFE6FFDACF20
:101A9000E6FFE1CFD9FFE2CFDAFFFD0EDB50FB0B13
:101AA000CA6ECC6A9E92FD0EDBAE02D09D8201D042
:101AB0009D92CA84E552E5CFDAFFE7CFD9FF120045
:101AC000F36AF46AFF0EE124E96EFF0EE220EA6E8B
:101AD000ED660ED02F0EEF640BD0390EEF6407D0F9
:101AE000EF9A400EEF6404D0470EEF6001D0F32A66
:021AF0001200E2
:0E1AF200FF0EE350136EEF0E01D0F30EE76E01
:101B0000E72E80EF0DF00C0E126EE76AE72E86EFDF
:101B10000DF0122E85EF0DF0132E7EEF0DF012005A
:101B2000008004021F0000004669726D77617265D3
:101B30004C6F61646572202020202020202020200E
:041B400030303031E0
:0C1B4400000EF36E00EE00F0080E01D859
:101B50001200EA6002D0EE6AFCD7F350E96012008E
:041B6000EE6AFCD756
:0C1B640012EE00F022EE00F0F86A0A9C7D
:101B700085EC0CF0C0EC0DF077EC0BF0FBD712000D
:021B8000120051
:0E1B8200000000000000000000000000000055
:101B90000000000000000000000000000000000045
:101BA0000000000000000000000000000000000035
:101BB0000000000000000000000000000000000025
:101BC0000000000000000000000000000000000015
:101BD0000000000000000000000000000000000005
:101BE00000000000000000000000000000000000F5
:101BF00000000000000000000000000000000000E5
:021C00000000E2
:020000040030CA
:0100000024DB
:010001000EF0
:010002003EBF
:0100030010EC
:010005008179
:010006008178
:0100080000F7
:010009008076
:01000A000FE6
:01000B00E014
:01000C000FE4
:01000D0040B2
:00000001FF
