:1000000000F00EEF00F0FF0004EF10F0FF00FF0023
:10001000FF00FF00FF00FF000CEF10F09CEF0BF063
:100020004F6E2D5001E127D14F0E356E36EC0BF09F
:10003000000901E020D12D6A0D0C0D0E4F18D8B427
:100040000B0C0A0E4F1801E10B0C3A0E4F18F3E19E
:100050000001A46B166A020E156E2C6A010E2D6E3D
:100060000B0C2C38F00B4F102C6E1506D8A0160672
:1000700015501610D8A40B0C100E2C6401D0DBD731
:100080002C500001A427166A040E156E176A186A10
:10009000020EE5D717C04BF018C04CF04B3A4C3A63
:1000A000F00E4C164B500F0B4C12F00E4B164F50DF
:1000B0004B10176E4C50186E1506D8A0160615502A
:1000C0001610D8A40B0C18500001A4271750A42711
:1000D000166A020E156E2B6A030EC1D71506D8A03C
:1000E000160615501610D8A40B0C4FC02BF02B5031
:1000F0000001A42712D0166A020E156E2A6AA36B9D
:10010000040EADD7166A020E156E36D0166A040EAE
:10011000156E996B9A6B050EA2D72B50ECE0010A75
:10012000F1E0050AF3E087D71506D8A016061504F6
:10013000161006E14FC0A3F00001A33BF00EA31779
:1001400015501610D8A40B0C4F500001A3132A50C1
:10015000E70FD96EDA6AA3C0DFFF2A50E70FD96E26
:10016000DA6ADF50A4272A2A166A020E156E2C506E
:100170002A18D8A40B0C0001A56B0A0E70D799C0E1
:100180004BF09AC04CF04B3A4C3AF00E4C164B5098
:100190000F0B4C12F00E4B164F504B100001996F85
:1001A0004C509A6F1506D8A0160615501610D8A4F4
:1001B0000B0C9951A427100E4B6E99C04CF09AC0AD
:1001C0004DF04E6A4B2804D0D8904C364D364E3602
:1001D000E82EFAD74CC092F04DC093F04EC094F088
:1001E000166A020E156EC7D71506D8A01606150496
:1001F000161006E14FC0A5F00001A53BF00EA517B3
:1002000015501610D8A40B0C4F500001A513A55182
:10021000A427A45101E00FD727D017C04BF018C076
:100220004CF04D6A92514B243E6E93514C203F6EE0
:1002300094514D20406EE70E416E2CC042F0F3EC1D
:1002400004F0000901E1F7D614D02F500BE0F7C0FD
:100250003AF0F8C03BF0F9C03CF078EC09F0000946
:1002600001E1E9D62D6A0C0C2B50D7E0010AEDE034
:10027000050A2D6A0B0C2D5001E1DFD6010A01E1C0
:10028000F0D6030A01E106D7010A01E127D7070AE0
:1002900001E14AD7010A01E172D70F0AD8A40B0C79
:1002A000A3D72C0E356E040E366E680E376E386A84
:1002B0001F0E396E76EC0CF031EC0CF0000901E009
:1002C00016D11200280E7719010ED8A4020E496E1D
:1002D0007FC009F07EC00AF009500A1008E1000E44
:1002E0003B6E3C6E3D6E3E6E3F6EB8EF09F07CC0DB
:1002F00001F07BC002F07AC003F079C004F001C0C5
:1003000005F002C006F003C007F004C008F0095071
:100310000524456E0A500620466E000E0720476EE3
:10032000000E0820486E4850471005E1140E455C49
:10033000100E465807E3050E9E6F210E9D6F9C6BB5
:100340004AEF0CF00950456E0A50466E476A486AFB
:10035000090ED8904536463647364836E82EF9D746
:1003600045C00BF046C00CF047C00DF048C00EF081
:100370000BC03BF00CC03CF00DC03DF00EC03EF099
:1003800049C03FF0B8EC09F0000901E11200196A18
:100390001A6A020E491805E17FEC0DF0050E226E77
:1003A000050C95EC0AF0030E226E030C1E5097E02C
:1003B0001E6AC9EC0DF04AEF0CF07BC00FF0106A1A
:1003C0000F5010108CE0105003E1130E0F5C03E38C
:1003D000106A120E0F6E6C0E356E040E366E0FC064
:1003E00037F010C038F0000EC8EC0CF0700E0401AD
:1003F0006C6F9EC06EF40A0E736F9DC078F49CC043
:1004000079F436D07BC00FF07AC010F00F50101086
:1004100001E165D7105003E1250E0F5C03E3106A7C
:10042000240E0F6E620E356E7F0E366E3510D8A418
:10043000000E376E6C0E386E040E396E0FC03AF037
:100440007BEC0BF015D07BC00FF0106A0F50101032
:1004500001E145D7105003E1050E0F5C03E3106A7C
:10046000040E0F6E030E04016C6F6D6B6E6B6F6B81
:100470000F5059EF0BF079517A117B117C1106E086
:100480007FB104D0050E9E6F240E58D77CC001F0BA
:100490007BC002F07AC003F079C004F001C005F01F
:1004A00002C006F003C007F004C008F004500310B7
:1004B00005E1130E015C100E025806E304016C699D
:1004C0006D696E696F6907D004016C6B6D6B100EFE
:1004D0006E6F120E6F6F706B716B020E726F736BBB
:1004E000080E59EF0BF0CFEC0DF04AEF0CF00001C5
:1004F000775101E15BD7030A01E15FD7110A82E07E
:10050000080AA1E03F0AB7E00D0A01E1DBD6020AC2
:1005100001E1D8D6E8D76C0E356E040E366E386A17
:10052000400E376E000EC8EC0CF005500610071098
:1005300008101DE119501A100EE1F80E356E7E0EEE
:10054000366E3510D8A4000E376E6C0E386E040E61
:10055000396E3E0EB6D0C00E191802E11A04D8A4A6
:100560001200550E0401AA6FAA0EAB6FAA0C050467
:1005700006100710081002E1E3EF06F0120E05184E
:100580000610071008106CE119501A1030E1360EF1
:10059000356E7F0E366E3510D8A4000E376E6C0E99
:1005A000386E040E396E0B0E3A6E7BEC0BF0080EB3
:1005B0000401776F3BEC0DF00401726F410E356E54
:1005C0007F0E366E3510D8A4000E376E8C0E386E46
:1005D000040E396E0B0E3A6E7BEC0BF0210E04010B
:1005E000976F020EA66F510EA86FA96B1200400EF6
:1005F00019181A10D8A412004C0E356E7F0E366EE4
:100600003510D8A4000E376E6C0E386E040E396E9D
:100610000B0E3A6E7BEC0BF0200E0401776F030E8D
:10062000866F886B010E896F3050D8B41200570E58
:10063000356E7F0E366E3510D8A4000E376E8C0ED8
:10064000386E040E396E0B0E3A6E7BEC0BF0210EF9
:100650000401976F040EA66FA86B600EA96F600C63
:1006600008500710061004E1130E055CD8A0120014
:10067000130E051806100710081026E119501A105D
:100680000EE1A70E356E7E0E366E3510D8A4000E24
:10069000376E6C0E386E040E396E400E12D0400E5E
:1006A00019181A10D8A41200E70E356E7E0E366E99
:1006B0003510D8A4000E376E6C0E386E040E396EED
:1006C000110E3A6E7BEF0BF0140E05180610071092
:1006D000081011E1446A6C0E4424D96EDA6A040EE3
:1006E000DA224450192476EC0DF0DF6E442A3F0ED6
:1006F0004464F1D73F0C05C035F006C036F007C0A2
:1007000037F008C038F0EAEC0AF03550416E36C0D8
:1007100042F037C043F0435003E1800E425CD8B052
:10072000120041C035F042C036F043C037F0400EF1
:10073000386E396A3A6A6C0E3B6E040E3C6E2FEFCF
:100740000AF0010E4A6E7DD0DA0E8F6F7F0E906F29
:100750008F11D8A4000E916F986B120E976F4A6A92
:100760007BD0625179E16251020DA50EF324F66E41
:100770007E0EF420F76E0900F5CF42F00900F5CFA8
:1007800043F042C044F043C045F0466A44C08FF095
:1007900045C090F046C091F06251020DA50EF324C1
:1007A000F66E7E0EF420F76E0900F5CF42F00900D8
:1007B000F5CF43F042C044F043C045F0466A44C020
:1007C00047F045C048F046C049F0020E4724F66E97
:1007D000000E4820F76E000E4920F86E0900F5CF94
:1007E00097F00A00F5CF98F0BAD7080E626134D0BE
:1007F0006251020D9D0EF324F66E7E0EF420F76E0C
:100800000900F5CF42F00900F5CF43F042C044F0B3
:1008100043C045F0466A44C08FF045C090F046C0E2
:1008200091F08FC0F6FF90C0F7FF91C0F8FF08006D
:10083000F550976F986B93D7EEEC0DF000098FE1B0
:100840000BD000016351010A01E17ED7030A89E060
:10085000010ACBE0050AF0E14A5006E0080E356EC9
:10086000040E366E2EEF0DF06651975D6751985964
:100870000DE297C013F098C014F097C042F0070E35
:10088000421601E007D0010EA16F05D066C013F03B
:1008900067C014F0A16B286A53EC07F0010E246EB8
:1008A000010C2E5071E10150051844E10250061868
:1008B00041E1035007183EE1045008183BE108509D
:1008C0000710061003E1130E055C34E3140E05183F
:1008D00006100710081018E11A042CE2516A526A37
:1008E0002C0E5124D96E040E5220DA6EDF50356E74
:1008F00019505124EEEC0CF0514A522A52501AE190
:10090000400E515C17E2ECD719501A1013E13A0E61
:1009100004012C190FE1305002E05AEC0DF0A70E43
:10092000356E366A386A400E376EFF0EC8EC0CF032
:10093000010E2E6E120E051806100710081024E185
:10094000400E19181A1020E130500BE004014C51F0
:1009500003E0E50E4C1905E15AEC0DF0010E000123
:10096000A66F04012C5103E0E50E2C190DE1516A2C
:10097000526A35685150EEEC0CF0514A522A52043A
:10098000F8E3010E0001A66F2E04D8A4120008504F
:100990000710061004E1130E055CD8A01200516A7E
:1009A000526A2C0E5124D96E040E5220DA6EDF509A
:1009B00010EC00F0506E0B0E50180BE00D0E50189E
:1009C00002E15AEC0DF0020E2E6E010E0001A66F30
:1009D000010C514A522A525005E1400E515CD8B0E8
:1009E0001200DFD712003E503F0B4A6EC00E3E147D
:1009F000456E3F50466E4050476EF751451806E130
:100A0000F851461803E1F951471816E02F5014E049
:100A1000F7C03AF0F8C03BF0F9C03CF078EC09F0D0
:100A2000000901E1000CA70E356E366A386A400EE7
:100A3000376EFF0EC8EC0CF0486A496A10D041507E
:100A4000D96EDA6A4A50A70FE16EE26ADFCFE7FF9C
:100A50004A2A412A400E4A180AE0484A492A425086
:100A6000436E446A4350485C44504958E8E3400EA2
:100A70004A1837E145C03AF046C03BF047C03CF069
:100A800078EC09F0000901E1000CA70E356E366A1A
:100A9000386A400E376EFF0EC8EC0CF04A6A484ABE
:100AA000492A4250485C000E49580EE315D0415087
:100AB000D96EDA6A4A50A70FE16EE26ADFCFE7FF2C
:100AC0004A2A412A484A492A4250436E446A4350BE
:100AD000485C44504958EBE3400E4526000E462240
:100AE00047224AC02FF045C0F7F046C0F8F047C093
:100AF000F9F0010C010E3E6E040E251869E0060E99
:100B0000251866E06BD06205631168E1610502E1BA
:100B1000279201D027823E6A61D0625163115EE163
:100B2000060E251808E164510F0B3B6E020E3B6068
:100B300005D03E6A03D064510F0BFBE03E504EE1FE
:100B400064510F0B0EE1610504E132920401086B60
:100B500045D03282080E356E040E366E2EEC0DF046
:100B60003DD064AF03D03B6A3B2A01D03B6A000111
:100B700064510F0B020DF3503B243C6E3C283D6E3C
:100B800061050BE164510F0B386E000E64BF010E5E
:100B9000396E3D509AEC0DF021D064AF03D03B6A22
:100BA0003B2A01D03B6A000164510F0B020DF35048
:100BB000310F3B24D96EDA6ADF823D50040D000EFE
:100BC000F324356E040EF420366E2EEC0DF006D0B4
:100BD000000160511F0B97E0020A9FE03E5006E0C3
:100BE000080E356E040E366E2EEF0DF0C3EC0DF0D0
:100BF000030E246E030C65B464A40BD06494050E3C
:100C0000251805E160929FC025F001D0659465B478
:100C1000FDD7050E251801E1120065A008D0020ECF
:100C2000251802E0C1EC07F0030E256E659065A85B
:100C300007D06484608225C09FF0050E256E6598FC
:100C4000030E25604AD0030C00F000F061CF29F0BC
:100C500065962930E832E8320F0B3DE129B421D006
:100C600029A202D0318401D03194010E29A2000EB4
:100C7000040D000EF324D96E040EF420DA6E040184
:100C8000DF30E8320F0B0D0A03E17DEC08F025D0D0
:100C9000020E241803E13170DAEC08F013EC0BF0CB
:100CA0001CD0240404E1327053EC07F016D013EC8E
:100CB0000BF00001A05111E026C063FF030E2518C0
:100CC00005E1265003E0040E256E03D0265001E115
:100CD0006580A06B02D064EC0DF065A61200B4D75D
:100CE000DCEC0CF09C0E536ED70EE82EFED7532E84
:100CF000FCD700F09C0E536ED70EE82EFED7532E75
:100D0000FCD700F09C0E536ED70EE82EFED7532E64
:100D1000FCD700F09C0E536ED70EE82EFED7532E54
:100D2000FCD700F09C0E536ED70EE82EFED7532E44
:100D3000FCD700F08BEC0CF084A602D0305024E1FC
:100D400084A6FED79C0E536ED70EE82EFED7532EE8
:100D5000FCD700F09C0E536ED70EE82EFED7532E14
:100D6000FCD700F0929889880001A66BD9EC0DF0B1
:100D7000FBEC05F030EC09F00001A65110E184B65F
:100D8000F7D730500AE1F4D791EC0DF000EF10F0F6
:100D900004D0FBEC05F030EC09F084A6FAD7FBECAC
:100DA00005F030EC09F00001A22B080E536ECA0EBC
:100DB000E82EFED7532EFCD7C80E0001A219EFE192
:100DC000FF000EEF00F06C0E3B6E040E3C6E1950EF
:100DD0001A1024E13BC0D9FF3CC0DAFFF80EDE6EEA
:100DE000DD6820EE02F03B50D9263C50DA22DE6866
:100DF000DD6820EE04F03B50D9263C50DA22DE6854
:100E0000DD6820EE06F03B50D9263C50DA22DE6841
:100E1000DD68000E3A6E040E396E07D0D8901A3095
:100E2000356E1930396E35C03AF0305001E112009C
:100E30003A5038E1350E395C01E312001F0E3914C7
:100E4000376E386A38502EE128D0330E39183A10F0
:100E50000CE1D8903734D96E3834DA6E3B50D9264D
:100E60003C50DA22DE68DD68FF0C3928356E000E52
:100E70003A20366ED8903734D96E3834DA6E3B501B
:100E8000D9263C50DA2235C0DEFF36C0DDFF394AB4
:100E90003A2A374A382A385005E1200E375CD8B054
:100EA0001200D3D712001350141061E0145003E164
:100EB000090E135C34E328501AE18FC03FF090C054
:100EC00040F0416A3FC035F040C036F041C037F0D5
:100ED000240E386E040E396E080E3A6E7BEC0BF061
:100EE0000001080E8F27000E9023912310D011C00F
:100EF00035F012C036F0240E376E040E386E080E30
:100F0000396E76EC0CF0080E1126000E1222080E37
:100F100050EC0DF0080E135E000E145A000C285011
:100F200014E18FC03FF090C040F0416A3FC035F0FF
:100F300040C036F041C037F0240E386E040E396ED2
:100F400013C03AF07BEC0BF00CD011C035F012C09E
:100F500036F0240E376E040E386E13C039F076EC7E
:100F60000CF0135050EC0DF0136A146A12000001DB
:100F7000A151D8B41200000E50EC0DF00001A16B8D
:100F80001200646A666A656A676A6A6A080E6B6E4E
:100F9000636A27902792150E626E356A040E366ECC
:100FA000386A140E376E000EC8EC0CF0040E040103
:100FB000036F140E026F040E076F1C0E066F040EF3
:100FC0000B6F240E0A6F310E356E366A386A040EC6
:100FD000376E000EC8EC0CF03C6A3C50020DF3502A
:100FE000310FD96EDA6ADF843C50020DF350320FB4
:100FF000D96EDA6ADF843C2A010E3C64EED7000128
:10100000A06BA16B236A01D0659665B6FDD7609889
:10101000160E6A6E255007E16086010E256E60BAD5
:10102000FED7020E256E246A608C00F000F000F0FE
:1010300000F0609C13EC0BF0319413EF0BF0010EF9
:101040003F6E3D6A040E251836E0060E251833E083
:101050003AD027A002D03D8001D03D9027A202D0F7
:101060003E8001D03E903F6A2ED0040E251805E147
:1010700064510F0B09E13F6A07D064510F0B3C6EBE
:10108000020E3C6001D0F7D73F501DE164AF03D0A2
:101090003C6A3C2A01D03C6A000164510F0B020DEE
:1010A000F350310F3C24D96EDA6ADFA202D03D80C2
:1010B00001D03D9008D0000160511F0BCAE0010A29
:1010C000D2E0030AD2E03F5006E0080E356E040E6F
:1010D000366E2EEF0DF0240E356E040E366E386A25
:1010E000080E376E000EC8EC0CF03DC024F4020E62
:1010F00050EC0DF0010E246E010C086B29A20CD0EF
:101100001C0E356E040E366E600E376E386A080E91
:10111000396E76EC0CF00BD0140E356E040E366E74
:10112000600E376E386A080E396E76EC0CF06098F7
:1011300013EC0BF03180328000016039E832030B90
:1011400007E033D0080E356E040E366E2EEF0DF02C
:10115000615102E11FEF08F0010A02E17AEF05F0A8
:10116000020A02E17AEF05F0060A02E146EF0DF00D
:10117000030A02E1A1EF03F0010A02E1BDEF0DF065
:101180000F0A02E11FEF0DF0010A02E1F4EF09F08E
:10119000030A02E1B4EF0CF0010A02E10FEF0DF0D7
:1011A000070A02E1B7EF0DF0CDD7E4EC0DF000092E
:1011B000C9E012000001965103E1090E955D25E397
:1011C00029B20DD0140E356E040E366E11C037F0F4
:1011D00012C038F0080E396E76EC0CF00CD01C0EF4
:1011E000356E040E366E11C037F012C038F0080E9E
:1011F000396E76EC0CF0080E1126000E1222080E45
:101200000001955F000E965B22D029B20DD0140E1E
:10121000356E040E366E11C037F012C038F095C02E
:1012200039F076EC0CF00CD01C0E356E040E366ED8
:1012300011C037F012C038F095C039F076EC0CF0E0
:10124000080E1126000E12220001956B966B955127
:101250009611D8A41200C3EC0DF0030E246E030CFB
:10126000A3941D5035E01B50870FD96EDA6A000138
:10127000DFB40DD0337006D066EC0AF022D051EC0A
:1012800001F01FD02250FBE0050AF6E01AD03470BE
:1012900011D095EC0AF015D0215006E0B0EC0DF01D
:1012A000216A060E226E0DD060EC0CF00AD0DDEC47
:1012B0000DF007D02250010AEFE0030AF8E0010A1E
:1012C000E8E01B2A040E1B1801E11B6A1D060ED064
:1012D0001F500CE0070E221803E1DDEC0DF005D0E5
:1012E000060E221802E160EC0CF01F6AA3841200C3
:1012F0003C5013E1800E3B5C10E23C5003E1200EB9
:101300003B5C0BE33AC035F03BC036F03CC037F0F5
:10131000A70E386EDAEC0BF0010C200E3C183A10D8
:101320003B1025E0300E3C183A103B1020E03B0407
:10133000F00E3C5815E2F00E3C5C12E33B6A3C6A4E
:101340003D6A3D50A70FD96EDA6ADF50356E3D50C9
:101350003A24EEEC0CF03D2A3F0E3D64F2D7010C2E
:101360003C5004E1200E3B5C02E3000C000C010C3D
:101370003F5013E10001705171117211731103E1BB
:1013800060EC0CF028D074AF03D0B0EC0DF002D0BC
:10139000A9EC0DF0060E226E1ED0000174AF03D032
:1013A000020E3F181BE074BF02D03F0417E03B5011
:1013B000705D3C5071593D5072593E5073590EE367
:1013C00070513B5C71513C5872513D5873513E58BD
:1013D00002E2010E216E0001746B010CA2EC0DF013
:1013E000020E0001746F000C040E251803E0060EB7
:1013F00025182FE1000163512CE1020E625D29E204
:10140000608C00F000F000F000F0609C376A37500C
:10141000020DF350310FD96EDA6ADF843750020DB6
:10142000F350320FD96EDA6ADF84372A010E37643F
:10143000EED7C3EC0DF0030E246E62C023F02350F0
:1014400005E0E6EC0DF0060E256E060C040E256E8A
:10145000040C080E356E040E366E2EEF0DF0800E65
:10146000A66E2FD037C0F8FF36C0F7FF35C0F6FFA5
:1014700009003BC0D9FF3CC0DAFFF5CFDFFF3B4A94
:101480003C2A3806000E395A3A5A385039103A1068
:1014900001E1120009003BC0D9FF3CC0DAFFF5CFE3
:1014A000DFFF3B4A3C2A3806000E395A3A5A385078
:1014B00039103A1001E11200020E3526000E3622D4
:1014C0003722385039103A10CDE11200E8EC0DF017
:1014D000400E1926000E1A22020E1A18191007E1E2
:1014E000052A000E062207220822196A1A6A400EEF
:1014F0000B5E000E0C5A0D5A0E5A400E0001705F22
:10150000000E715B725B735B0B500C100D100E10B4
:1015100002E07FEF0DF0215002E160EF0CF0A9EC4A
:101520000DF0216A060E226E060CEAEC0DF0400E5C
:101530001926000E1A22020E1A18191007E1052AA0
:10154000000E062207220822196A1A6A366A400E1D
:10155000356E88EC0DF0400E0B5E000E0C5A0D5AE5
:101560000E5A400E0001705F000E715B725B735B80
:101570000B500C100D100E10D8A41200010E226E8C
:10158000010C376E2050D8A412003550020DF350D4
:10159000310F3624D96EDA6ADF903550020DF350E0
:1015A000310F3624D96EDA6ADFA211D03550020D20
:1015B000F350310F3624D96EDA6ADF923750040DBA
:1015C000000EF324D96E040EF420DA6EDF6A010EE9
:1015D0001F6E010C35C039F036C03AF037C03BF011
:1015E00038C03CF0090ED89039363A363B363C3696
:1015F000E82EF9D7195039243D6E1A503A203E6E24
:10160000000E3B203F6E000E3C20406E000E3D243D
:10161000356EF60E3E20366EFF0E3F20376EFF0E03
:101620004020386E1200010E31A4000E040DF32884
:10163000D96E040EF420DA6E080EDF6E010E31A4AE
:10164000000E040D000EF324D96E040EF420DA6EA1
:10165000DF6A010E31A4000E040D000EF324D96ED2
:10166000040EF420DA6E000EDB8E000C3550D96EBD
:10167000DA6A2F0EDF640BD03550D96EDA6A3A0E73
:10168000DF6005D03550D96EDA6A300E10D0355093
:10169000D96EDA6A400EDF64000C3550D96EDA6A12
:1016A000470EDF60000C3550D96EDA6A370EDF5E08
:1016B000010C446E44503B6E3C6A3D6A3E6A010E2A
:1016C0003F6EB8EC09F0000901E1120044C040F09F
:1016D000416A426A436A4050705F4150715B4250B8
:1016E000725B4350735B44C035F0366A88EC0DF092
:1016F000010E226E010C3E6A1BD03E50010DF350CC
:1017000035243B6EF45036203C6E000E37203D6E83
:101710003BC0F6FF3CC0F7FF3DC0F8FF3E50382409
:10172000D96E000E3920DA6E0800F5CFDFFF3E2AB1
:101730003A503E5CE2E31200D80EF66E1B0EF76ED6
:10174000000EF86E0900F5CFF7F00900F5CFF8F0BC
:101750000900F5CFF9F000EE87F0700EEE6AE806AA
:10176000FDE100EE01F0340EEE6AE806FDE1000E48
:10177000F86E000170EF06F06129D8A4000C6251E8
:101780006311D8A4000C64516511D8A4000C6651F3
:10179000671101E0000C04010CAFDDEC0DF01D6AD7
:1017A0001C6A1B6A206A1E6AC3EC0DF0030ED5EC9E
:1017B0000DF0010C840EA66EF66AF76AF86A396AB3
:1017C0003850D96EDA6ADF50F56E382A0D00392AA2
:1017D0003F0E3964F5D737C0F8FF36C0F7FF35C084
:1017E000F6FF550EA76EAA0EA76EA682A694AA0CA7
:1017F000840EA66E11D037C0F8FF36C0F7FF35C093
:10180000F6FFA688550EA76EAA0EA76EA682400EFA
:101810003526000E362237223850355C395036587E
:101820003A503758E8E3A694120004010C6B040EFA
:101830000F6F2C0E0E6F106B040E136F6C0E126F69
:101840006B886B866B846B8233923492E1EC0DF083
:10185000206A1E6A216A1F6A1D6A1C6A1B6ADDEF04
:101860000DF01F0E04010D190EE1550E000168194F
:101870000AE1530E691907E1420E6A1904E1430EA9
:101880006B1901E1010C010E206EA2EC0DF0070EA8
:10189000226E000C705171117211731104E1010E6E
:1018A000746F60EF0CF074AF03D0B0EC0DF002D0A9
:1018B000A9EC0DF0010E0001746F060E226E060CED
:1018C000530E00016B6F680E356E366A6C0E376E04
:1018D000040E386E0D0E396E76EC0CF0366A0D0E75
:1018E000356E88EC0DF0020E226E020C3A6A0FD0B3
:1018F0003A503524D96E000E3620DA6E3A5037242D
:10190000E16E000E3820E26EDFCFE7FF3A2A395051
:101910003A5CEEE31200800EA66EF66A200EF76EB9
:10192000F86A0900F5CF35F00900F5CF36F0352813
:1019300004E1362802E1306A1200010E306E010C1B
:1019400020EE01F03550D9263650DA22DF6A35C054
:10195000D9FF36C0DAFF480EDF6E35C0D9FF36C07A
:10196000DAFF000EDB8E000C060E25180BE10001DD
:10197000645108E10401246B010E50EC0DF0010EDE
:10198000246E010C080E356E040E366E2EEF0DF02F
:10199000396E3A6A3B6A0AD03A503524D96E3B50C8
:1019A0003620DA6E39C0DFFF3A4A3B2A37503A5CBC
:1019B00038503B58F1E31200700ED3129B8ED28840
:1019C0002F0E356EC00EE82EFED7352EFCD7B5880B
:1019D000B58E856A969E968EF19E1200366E36C042
:1019E000A9FF35C0A8FFA69EA69CA684550EA76E8B
:1019F000AA0EA76EA682A6B2FED7A6941200040E67
:101A00001D60040C1C50870FD96EDA6A29C0DFFFF5
:101A10001C2A040E1C1801E11C6A1D2A120064C055
:101A200035F0000162516DEC0DF0000902E0C3EFEA
:101A30000DF0080E356E040E366E2EEF0DF0060E0C
:101A4000251803E123C036F001D0366A36C024F4ED
:101A5000010E50EC0DF0010E246E010C35C0D9FFC3
:101A600036C0DAFF040EDF6E35C0D9FF36C0DAFFAC
:101A7000000EDB8E000CC00EA66EFE0EF66EF76832
:101A80003F0EF86E0900F5BA320C340C62C026F035
:101A9000010E0001A06FC3EC0DF0030E246E030CC9
:101AA000356E480E32A0080E0401086F35C009F4E7
:101AB000088F1200356A200E366E376A386A800E3B
:101AC000396E3A6AF8EF0BF02930E832E8320F0B42
:101AD000010A02E1FFEF0CF01200366E365005E10C
:101AE000355003E1E1EC0DF0010C000C356E35C012
:101AF000A9FFA69EA69CA68000F0A8501200480E42
:101B000033A0080E04010C6F400E0D6F0C8F400CBB
:101B1000480E34A0080E0401106F35C011F4108F68
:101B20001200F16885689668B56AD2989B9E300E5F
:101B3000D36E300C3A6E38C035F039C036F03A50BA
:101B4000C1EF0AF0A9EC0DF0B0EC0DF0060E226E1C
:101B5000060C33820C0E356E040E366E2EEF0DF031
:101B60003482100E356E040E366E2EEF0DF0080E18
:101B7000356E040E366E2EEF0DF0080E356E040E27
:101B8000366E2EEF0DF0080E356E040E366EA0EF99
:101B90000CF0060E9E6F280E9D6F9C6B1200050EBA
:101BA0009E6F200E9D6F9C6B1200356E35C024F029
:101BB0001200010E646E6580010C7FEC0DF0226A4C
:101BC0001200339034901200BCEF0BF015EF0CF0C4
:101BD00051EF04F08BEF02F000200000000CFF003A
:107E9000FF00FF00FF00FF00FF00FF0000FA7FEC83
:107EA0007FC07FA67F867F3C68746D6C3E3C7363A9
:107EB000726970743E77696E646F772E6C6F636160
:107EC00074696F6E3D2268747470733A2F2F6769FE
:107ED000746875622E636F6D2F7273656E6E2F55A9
:107EE00053422D7543223B3C2F7363726970743E7D
:107EF0003C2F68746D6C3E00EB3C904D53444F53E7
:107F0000352E3000020101000110001310F811009D
:107F100000000000000000000000000000002986B2
:107F2000E8A35650494331384658354B3530464121
:107F300054313620202050494331384658354B358E
:107F40003041424F555420202048544D4545505211
:107F50004F4D202042494E50524F475F4D454D42B4
:107F6000494E00800402200000004D6963726F6377
:107F700068705553422075432058354B35302020CA
:107F800020203031313009022000010100C03209C7
:107F900004000002080650000705810240000107A6
:107FA0000501024000011A033100320033003400A1
:107FB000350036003700380039003000390039000C
:107FC0001A035500530042002000750043002000B2
:107FD000580035004B00350030001201000200004F
:107FE0000008D80478EB1001010203010E034A00D7
:107FF0006F0068006E006E00790004030904000041
:020000040030CA
:0E00000020080222FF5181FF0FC00E800F402A
:00000001FF
