:020000040000FA
:0600000038EF09F01200C8
:0611000038EF09F01200B7
:06110800F5EF08F01200F3
:06111800FEEF08F01200DA
:02112A000000C3
:04112C002A0EF66E23
:10113000110EF76E000EF86E00010900F550656F94
:101140000900F550666F03E1656701D03DD00900E5
:10115000F550606F0900F550616F0900F550626F3E
:1011600009000900F550E96E0900F550EA6E090022
:1011700009000900F550636F0900F550646F09001C
:101180000900F6CF67F0F7CF68F0F8CF69F060C0DC
:10119000F6FF61C0F7FF62C0F8FF0001635302E190
:1011A000645307E00900F550EE6E6307F8E2640748
:1011B000F9D767C0F6FF68C0F7FF69C0F8FF000104
:0A11C0006507000E665BBFD7120042
:0611CA009398939A8A8AB3
:1011D000C80EE66E11EC09F0E5528A9AC80EE66E6A
:1011E00011EC09F0E552F3D71200DACFE4FFE2CFB9
:1011F000DAFFE652E552E5CFDAFF1100D8CFE4FF7F
:10120000E0CFE4FFE46EDACFE4FFE2CFDAFFE652AC
:10121000E552E5CFDAFFE550E5CFE0FFE5CFD8FFB7
:021220001000BC
:0E122200FF0EE350036EEF0E01D0F30EE76EE9
:10123000E72E18EF09F00C0E026EE76AE72E1EEF9C
:1012400009F0022E1DEF09F0032E16EF09F012002F
:10125000000EF36E00EE00F0040E01D81200EA60FA
:1012600002D0EE6AFCD7F350E9601200EE6AFCD7B8
:1012700013EE00F023EE00F0F86A019C96EC08F003
:0C12800046EC09F0E5EC08F0FBD712008A
:02128C0012004E
:00000001FF
