:1008000004EE00F011EE00F00EEC04F00FEE70F0CC
:1008100010EE0FF00EEC04F0A9EF3FF0EE6AE55099
:0A082000E150FCE1E250FAE11200A1
:107F5200000E846E000E966E000E846EB7EC3FF03B
:107F62008468B7EC3FF0F8D700EF04F0000E000190
:107F72000001FC6F000E0001FD6F00010001FD51C8
:107F8200800A800FFA0ED8B4FC5DD8A001D001D0CF
:107F920001D034D0000E00010001FE6F000E00017E
:107FA200FF6F00010001FF51800A800FFF0ED8B45D
:107FB200FE5DD8A001D001D001D010D00001000197
:107FC200FE4BFF2B00010001FF51800A800FFF0EC4
:107FD200D8B4FE5DD8A001D001D0F0D700010001D5
:107FE200FC4BFD2B00010001FD51800A800FFA0EAF
:0E7FF200D8B4FC5DD8A001D001D0CCD71200CD
:020000040030CA
:04000000EAFEFFFE17
:02000600BFFF3A
:00000001FF
