:020000040000FA
:06000000BBEF04F012004A
:06080000BBEF04F0120042
:020808001200DC
:020818001200CC
:02082A000000CC
:04082C002A0EF66E2C
:10083000080EF76E000EF86E00010900F550656FA6
:100840000900F550666F03E1656701D03DD00900EE
:10085000F550606F0900F550616F0900F550626F47
:1008600009000900F550E96E0900F550EA6E09002B
:1008700009000900F550636F0900F550646F090025
:100880000900F6CF67F0F7CF68F0F8CF69F060C0E5
:10089000F6FF61C0F7FF62C0F8FF0001635302E199
:1008A000645307E00900F550EE6E6307F8E2640751
:1008B000F9D767C0F6FF68C0F7FF69C0F8FF00010D
:0A08C0006507000E665BBFD712004B
:0608CA00D9CFE6FFE1CFEB
:1008D000D9FF040EE126020EDB6A030EDB6A020E6C
:1008E000DBCF02F0030EDBCF03F0D890035004E619
:1008F0000A0E025C000E035819E2DE6ADD6ADECFE2
:1009000002F0DDCF03F0D890035004E6300E025C15
:10091000750E035805E2DF2A010E01E3DB2AEFD74B
:10092000020EDB2A030E01E3DB2AD9D7040EE15CB9
:1009300002E2E16AE552E16EE552E7CFD9FF12002B
:100940000F0EC112FC0E8D1696168D80BEDF8D9097
:06095000BCDFFBD7120022
:0A095600000EF36E00EE00F0040E38
:1009600001D81200EA6002D0EE6AFCD7F350E960C9
:060970001200EE6AFCD744
:0A09760013EE00F023EE00F0F86A23
:10098000019C16EC04F0C9EC04F0A0EC04F0FBD7D9
:02099000120053
:02099200120051
:020000040030CA
:0100000022DD
:010001000EF0
:010002003FBE
:010003001EDE
:010005008179
:010006008178
:010008000FE8
:01000900C036
:01000A000FE6
:01000B00A054
:01000C000FE4
:01000D0040B2
:00000001FF
